:100000000C9463000C948B000C948B000C94D9031B
:100010000C94D9030C94D9030C948B000C948B0092
:100020000C948B000C948B000C948B000C948B0024
:100030000C948B000C948B000C948B000C948B0014
:100040000C9437070C948B000C942E080C94080821
:100050000C948B000C948B000C948B000C948B00F4
:100060000C94AB020C948B000000000024002700CD
:100070002A0000000008000201000003040700003D
:1000800000000000000000000000230026002900FE
:1000900000000000250028002B00040404040404D0
:1000A0000404020202020202030303030303010227
:1000B00004081020408001020408102001020408F6
:1000C00010205E11200C11241FBECFEFD8E0DEBF40
:1000D000CDBF12E0A0E0B1E0E6E5FFE202C005908E
:1000E0000D92AE3CB107D9F724E0AEECB2E001C00E
:1000F0001D92AE3EB207E1F710E0C2E6D0E004C0C8
:100100002197FE010E949C15C136D107C9F70E94B4
:10011000960C0C949E170C940000FC01538D448D9A
:10012000252F30E0842F90E0821B930B541710F0A2
:10013000CF96089501970895FC01918D828D9817AF
:1001400061F0828DDF01A80FB11D5D968C91928DBB
:100150009F5F9F73928F90E008958FEF9FEF0895B8
:10016000FC01918D828D981731F0828DE80FF11D81
:10017000858D90E008958FEF9FEF0895FC01918D9C
:10018000228D892F90E0805C9F4F821B91098F7395
:100190009927089580E090E0892B29F00E94BB0602
:1001A00081110C9400000895DC015996ED91FC91A9
:1001B0005A97309709F00994089585ED8093BC0013
:1001C0008091BC0084FDFCCF1092C403089540913F
:1001D0007303262F30E0240F311D21323105DCF46A
:1001E0002091C4032430C9F4FC0180E090E086171C
:1001F00058F4309173032191DC01AD5ABC4FA30F29
:10020000B11D2C930196F3CF80917303680F609317
:10021000730380E0089581E0089582E008950895D1
:10022000CF93DF93AC01E091C903F091CA033097FB
:10023000F1F09091C8038091C7039817C0F090E047
:10024000292F30E02617370754F4D901AD5CBC4F95
:10025000EA01C20FD31F28812C939F5FF1CF109228
:10026000C8036093C703CB01DF91CF910994DF915D
:10027000CF9108950895E091C8038091C703E817CE
:1002800030F4F0E0ED5CFC4F808190E008958FEF5A
:100290009FEF08959091C8038091C703981750F479
:1002A000E92FF0E0ED5CFC4F208130E09F5F909300
:1002B000C80302C02FEF3FEFC90108958091C70323
:1002C00090E02091C803821B91090895CF92DF929C
:1002D000EF92FF920F931F93CF93DF937C01CB019B
:1002E0008A0120913203222389F0EB016B01C40EB5
:1002F000D51ECC15DD0569F06991D701ED91FC9112
:100300000190F081E02DC7010995F3CF642F0E9481
:10031000E700C801DF91CF911F910F91FF90EF90FF
:10032000DF90CF900895CF93DF931F92CDB7DEB7C4
:100330006983209132032223D1F02091C50320321A
:1003400040F021E030E0FC013383228380E090E044
:1003500015C08091C603E82FF0E0EE5EFC4F998156
:1003600090838F5F8093C6038093C50305C061E0CF
:10037000CE0101960E94E70081E090E00F90DF91AE
:10038000CF9108952091BC033091BD032817390700
:1003900071F49091BA038091BB03981741F0E091FA
:1003A000BA03F0E0EE52FD4F808190E008958FEFA8
:1003B0009FEF08951F93CF93DF93DC015C968D919F
:1003C0009C915D97009739F421E030E013963C93BF
:1003D0002E9312973BC05196ED91FC9152975096F7
:1003E0002C915097322F30951FB75E964C915E97A7
:1003F000742F727041FD6095F8944081772311F05D
:10040000422B01C043234083EC012197F1F748E0E0
:10041000508160FF02C0522B01C053235083EC0176
:100420002197F1F76695415099F78081772319F06C
:100430008323808302C0282B20831FBF5C968D916D
:100440009C915D970197F1F781E090E0DF91CF916A
:100450001F9108952091BC033091BD0328173907DF
:1004600071F48091BB032091BA0390E0805C9F4FB0
:10047000821B910960E470E00E947415089580E089
:1004800090E008952091BC033091BD0328173907EF
:10049000B9F49091BA038091BB03981789F0E09169
:1004A000BA03F0E0EE52FD4F80812091BA0330E0B4
:1004B0002F5F3F4F2F7333272093BA0390E00895A7
:1004C0008FEF9FEF0895089580E090E00895FC017C
:1004D000848DDF01A80FB11DA35ABF4F2C91848DCD
:1004E00090E001968F739927848FA689B7892C9302
:1004F000A089B1898C91837080648C93938D848D55
:10050000981306C00288F389E02D80818F7D808357
:100510000895CF93DF93EC01888D8823C9F0EA8991
:10052000FB89808185FD05C0A889B9898C9186FDEC
:100530000FC00FB607FCF5CF808185FFF2CFA889E9
:10054000B9898C9185FFEDCFCE010E946702E7CF7C
:10055000DF91CF9108951F920F920FB60F92112441
:100560002F933F934F935F936F937F938F939F93BB
:10057000AF93BF93EF93FF938091B900887F80364C
:1005800009F49CC068F5883209F45BC090F48031AE
:1005900009F454C038F4882309F4F6C0883009F40B
:1005A0004DC0F6C0883109F44CC0803209F45DC0FA
:1005B000EFC0803409F468C048F4803309F455C0B2
:1005C000883309F0E5C080939603D8C0803509F4DC
:1005D0004FC0883509F45DC0883409F0D9C0D6C051
:1005E000883909F4C7C0A8F4883709F467C038F41B
:1005F000883609F463C0803709F460C0C9C0883800
:1006000009F4B8C0803909F45FC0803809F0C0C06F
:100610005BC0803B09F486C038F4803A09F466C0B8
:10062000883A09F47FC0B4C0803C09F4A7C0883C74
:1006300009F4A4C0883B09F48AC0AAC08091B90318
:1006400010C09091B8038091B703981770F5E091AE
:10065000B80381E08E0F8093B803F0E0E956FC4FB9
:1006600080818093BB0085EC86C0809396038EC00A
:10067000E091B80381E08E0F8093B8038091BB00B6
:10068000F0E0E956FC4F80839091B8038091B70366
:100690006EC0E091B80381E08E0F8093B803809123
:1006A000BB00F0E0E956FC4F80838091C3038111C9
:1006B0006DC081E08093C20384EA61C083E08093CF
:1006C000C40310929503CFCF80919503803208F038
:1006D00051C0E091950381E08E0F80939503809146
:1006E000BB00F0E0EB58FC4F8083BDCF85EC8093DE
:1006F000BC001092C40380919503803230F4E091E5
:100700009503F0E0EB58FC4F10826091950370E088
:10071000E091BE03F091BF0385E793E00995109245
:10072000950336C084E08093C40310927403109242
:100730007303E091C003F091C103099580917303A5
:10074000811105C081E08093730310925303E091FF
:10075000740381E08E0F80937403F0E0ED5AFC4F38
:1007600080818093BB0090917403809173039817EC
:1007700008F479CF85E88093BC000AC085EC8093AB
:10078000BC001092C40304C0109296030E94DD00C6
:10079000FF91EF91BF91AF919F918F917F916F9159
:1007A0005F914F913F912F910F900FBE0F901F902F
:1007B00018951F920F920FB60F9211242F933F930B
:1007C0004F935F936F937F938F939F93AF93BF9359
:1007D000EF93FF93E091BC03F091BD03309709F4D0
:1007E00051C0968DA685B785858591FF04C09C91E3
:1007F000892329F447C09C91892309F043C0A38928
:10080000B4899C918589809589238C938689978961
:100810000197F1F7608D718DA685B785558538E014
:1008200020E0CB010197F1F7822F90E09595879515
:10083000282F4C91452309F02068315091F7868D7F
:1008400081FD20958091BB0390E001968F739927DD
:100850003091BA03381749F0A091BB03B0E0AE5213
:10086000BD4F2C938093BB0303C0868D8160868F20
:10087000828D938D0197F1F7A389B4899C91858925
:10088000892B8C93FF91EF91BF91AF919F918F91A5
:100890007F916F915F914F913F912F910F900FBE7C
:1008A0000F901F901895CF93DF93D82FC62F81E01C
:1008B000809332038AE28093CE021092C603109294
:1008C000C5036D2F8AE794E00E9493016C2F8AE79D
:1008D00094E00E9493019091C503913208F044C0C6
:1008E0008091C4038111FCCF82E08093C40381E036
:1008F0008093C3038FEF809396031092B803909375
:10090000B703A2E1B3E0E7E9F3E080E0981721F054
:100910002D9121938F5FFACF1092B9038091B90383
:1009200084658093B9038091C203813061F4109291
:10093000C2038091B9038093BB008091BC0083FD0A
:10094000F8CF85EC01C085EE8093BC008091C40394
:100950008230E1F3809196038F3F31F080919603CE
:10096000803211F0809196031092C6031092C50355
:100970001092320382E491E00E94BD088D2F0E9404
:10098000F00886EC92E00E94BD088C2F0E94F008CF
:1009900080E691E0DF91CF910C9496081F93CF935E
:1009A000DF9300D000D000D0CDB7DEB7CE010196E6
:1009B0000E9489089091C7038091C803981701F19C
:1009C0008AE794E00E944A01182F83E691E00E9492
:1009D000BD08812F0E94F00880E691E00E949608F1
:1009E0009091C7038091C803981751F08AE794E06B
:1009F0000E944A01682FCE0101960E94A807F0CFFD
:100A00001532B9F01E3541F11432C1F5BE016F5FE8
:100A10007F4F8EE994E00E94600A89E991E00E948C
:100A2000BD088EE994E00E94A80881E08093CF027F
:100A300025C0BE016F5F7F4F88E994E00E94600A85
:100A400086E791E00E94BD0888E994E00E94A8082A
:100A500081E08093D10212C0BE016F5F7F4F82E9B7
:100A600094E00E94600A86E891E00E94BD0882E955
:100A700094E00E94A80881E08093D0029091C7037F
:100A80008091C803981759F08AE794E00E944A01C0
:100A9000BC01990F880B990B0E94040AEFCFCE017D
:100AA00001960E94030826960FB6F894DEBF0FBE8B
:100AB000CDBFDF91CF911F910895CF93DF93CDB735
:100AC000DEB72C970FB6F894DEBF0FBECDBF0E94E5
:100AD0003C0A892BD1F5CE0101960E948908CE01EE
:100AE00007960E94BA0ABE01695F7F4FCE01019648
:100AF0000E94810ACE0107960E94030864E2CE019B
:100B000001960E94A8076FE6CE0101960E94A807F1
:100B100018861F821A8619861C861B86BE016F5F87
:100B20007F4FCE0107960E94600ACE0107960E9471
:100B3000DF0BCE0107960E940308CE0101960E94AA
:100B4000A808CE0101960E9403080E943C0A892B46
:100B5000F1F440E050E062E671E088E994E00E9440
:100B6000D8078091980490919904892B09F0B4C01A
:100B700040E050E062E671E082E994E00E94D8072C
:100B80008091920490919304892B09F0B2C08091D6
:100B9000D102882379F1CE0101960E94890863E28F
:100BA000CE0101960E94A80765E2CE0101960E943F
:100BB000A80768E974E0CE0101960E94BF08188674
:100BC0001F821A8619861C861B86BE016F5F7F4FA7
:100BD000CE0107960E94600ACE0107960E94DF0BA5
:100BE000CE0107960E9403081092D102CE01019611
:100BF0000E9403088091D002882379F1CE010196EA
:100C00000E94890863E2CE0101960E94A8076EE562
:100C1000CE0101960E94A80762E974E0CE01019618
:100C20000E94BF0818861F821A8619861C861B869A
:100C3000BE016F5F7F4FCE0107960E94600ACE0112
:100C400007960E94DF0BCE0107960E9403081092C0
:100C5000D002CE0101960E9403088091CF02882322
:100C600009F454C0CE0101960E948908CE0107966E
:100C70000E94BA0ABE01695F7F4FCE0101960E94B1
:100C8000810ACE0107960E94030864E2CE01019614
:100C90000E94A8076EE974E0CE0101960E94BF0889
:100CA00018861F821A8619861C861B86BE016F5FF6
:100CB0007F4FCE0107960E94600ACE0107960E94E0
:100CC000DF0BCE0107960E9403081092CF02CE01DF
:100CD00001960E9403081AC08BEA91E00E942E0A36
:100CE00065E28FE30E9453048DEB91E00E942E0A8F
:100CF0003FCF8CEC91E00E942E0A6EE58FE30E94BC
:100D0000530481EE91E00E942E0A41CF2C960FB63B
:100D1000F894DEBF0FBECDBFDF91CF910895CF9283
:100D2000DF92EF92FF920F931F93CF93DF936C01AB
:100D30007A018B01C0E0D0E0CE15DF0581F0D8014B
:100D40006D918D01D601ED91FC910190F081E02D26
:100D5000C6010995892B11F02196EECF7E01C701BE
:100D6000DF91CF911F910F91FF90EF90DF90CF9087
:100D700008950E9489178DED93E00E94BE0021E046
:100D8000892B09F420E0822F0895EF92FF920F93B0
:100D90001F93CF93DF93EC0181E0888F9B8D8C8D27
:100DA000981305C0E889F989808185FD26C0F62E53
:100DB0000B8D10E00F5F1F4F0F731127E02E8C8DEE
:100DC000E8120CC00FB607FCFACFE889F9898081D8
:100DD00085FFF5CFCE010E946702F1CF8B8DFE011A
:100DE000E80FF11DE35AFF4FF0829FB7F8940B8F85
:100DF000EA89FB89808180620AC09FB7F894EE89F6
:100E0000FF896083E889F9898081837080648083A9
:100E10009FBF81E090E0DF91CF911F910F91FF90F4
:100E2000EF9008953FB7F8948091D9039091DA0339
:100E3000A091DB03B091DC0326B5A89B05C02F3F32
:100E400019F00196A11DB11D3FBFBA2FA92F982FF0
:100E50008827820F911DA11DB11DBC01CD0142E06B
:100E6000660F771F881F991F4A95D1F708951F9223
:100E70000F920FB60F9211242F933F938F939F934E
:100E8000AF93BF938091D5039091D603A091D703E0
:100E9000B091D8033091D40323E0230F2D3720F4F1
:100EA0000196A11DB11D05C026E8230F0296A11DC4
:100EB000B11D2093D4038093D5039093D603A093C0
:100EC000D703B093D8038091D9039091DA03A0910E
:100ED000DB03B091DC030196A11DB11D8093D90302
:100EE0009093DA03A093DB03B093DC03BF91AF913F
:100EF0009F918F913F912F910F900FBE0F901F9058
:100F000018950F931F93CF93DF93EC0188819981FC
:100F1000009729F02A813B812617370788F48B0137
:100F20006F5F7F4F0E94C316009761F0998388839B
:100F30001B830A832C813D81232B11F4FC01108239
:100F400081E001C080E0DF91CF911F910F91089562
:100F5000EF92FF920F931F93CF93DF9300D0CDB703
:100F6000DEB78C0169831A82FC01E480F580FFEF13
:100F7000EF1AFF0AB7010E948107882381F0F80168
:100F80002081318184819581BE016F5F7F4F820F07
:100F9000931F0E949717F801F582E48281E00F9079
:100FA0000F90DF91CF911F910F91FF90EF900895D7
:100FB000EF92FF920F931F93CF93DF93EC017B018E
:100FC0008A01BA010E9481072881398181110DC0EF
:100FD0002115310519F0C9010E943A1619821882AB
:100FE0001D821C821B821A8206C01D830C83B701DE
:100FF000C9010E949717CE01DF91CF911F910F91E8
:10100000FF90EF900895FC01808191810C943A1635
:101010001F920F920FB60F9211242F933F934F936D
:101020005F936F937F938F939F93AF93BF93EF9350
:10103000FF938DED93E00E946702FF91EF91BF91C6
:10104000AF919F918F917F916F915F914F913F9160
:101050002F910F900FBE0F901F9018951F920F9217
:101060000FB60F9211242F938F939F93EF93FF93BB
:10107000E091ED03F091EE038081E091F303F091B4
:10108000F40382FD12C090818091F6038F5F8F730D
:101090002091F703821751F0E091F603F0E0E3525C
:1010A000FC4F958F8093F60301C08081FF91EF91F3
:1010B0009F918F912F910F900FBE0F901F901895B9
:1010C000833081F028F4813099F08230A1F00895C6
:1010D0008730A9F08830B9F08430D1F48091800055
:1010E0008F7D03C0809180008F778093800008956A
:1010F00084B58F7702C084B58F7D84BD08958091BB
:10110000B0008F7703C08091B0008F7D8093B000D6
:101110000895FC01118210821382128215821482BA
:1011200040E050E062E671E00C94D807009769F067
:10113000FC0101900020E9F73197AF01481B590BE2
:10114000BC018DED93E00C948F0680E090E0089553
:10115000CF93DF93FC0144815581608171818DEDD6
:1011600093E00E948F06EC0180E691E00E949608D1
:101170008C0F9D1FDF91CF9108950C949608EF92EC
:10118000FF920F931F93CF93DF93FB01048115818F
:10119000E080F180E114F10411F480E01AC001153F
:1011A0001105B1F0EC018C819D81080F191FB80168
:1011B000CE010E948107882381F3288139818C81A7
:1011C0009D81B701820F931F0E9497171D830C8387
:1011D00081E0DF91CF911F910F91FF90EF900895E3
:1011E000682F8DED93E00C94C5068F929F92AF927D
:1011F000BF920F931F93CF93DF93CDB7DEB7A19725
:101200000FB6F894DEBF0FBECDBF19A2423008F46E
:101210004AE08E010F5D1F4F842E912CA12CB12C22
:10122000A50194010E942414E62FB901CA010150BE
:101230001109EA3014F4E05D01C0E95CD801EC93D7
:10124000232B242B252B61F7C8010E949608A19619
:101250000FB6F894DEBF0FBECDBFDF91CF911F91C7
:101260000F91BF90AF909F908F9008958F929F9213
:10127000AF92BF92CF92DF92EF92FF920F931F93A4
:10128000CF93DF936B017C01142F9B01AC010E9473
:101290006F15882319F08AEA92E027C046015701AA
:1012A000E894B7F82FEF3FEF4FE75FE7C501B401D0
:1012B0000E946F1581110DC02FEF3FEF4FE75FE7E1
:1012C000C501B4010E94971218161CF48EEA92E030
:1012D0000CC02FEF3FEF4FE75FE4C701B6010E945C
:1012E0006A15181684F482EB92E0DF91CF911F917A
:1012F0000F91FF90EF90DF90CF90BF90AF909F90B5
:101300008F900C9496082FEF3FEF4FE75FECC701EB
:10131000B6010E94971287FDE6CF20E030E0A901D8
:10132000C701B6010E94971287FF09C08DE20E9493
:10133000F008EC01F7FAF094F7F8F09402C0C0E07E
:10134000D0E000E060E070E080E09FE3101741F043
:1013500020E030E040E251E40E94C2140F5FF6CF7B
:10136000A70196010E9456146B017C010E943B1557
:101370004B015C014AE00E94F508C80FD91F1123F8
:10138000A9F1C501B4010E949C129B01AC01C701E7
:10139000B6010E9455146B017C018EE20E94F00898
:1013A000C80FD91F20E030E040E251E4C701B60188
:1013B0000E94FD124B015C010E943B156B01E12C68
:1013C000F12C4AE0C701B6010E94F508C80FD91FE9
:1013D000C701B6010E949C129B01AC01C501B4017A
:1013E0000E9455146B017C011150E1F6CE01DF9192
:1013F000CF911F910F91FF90EF90DF90CF90BF9012
:10140000AF909F908F900895CF92DF92EF92FF92CE
:10141000CF93DF9397FF19C06B017C018DE20E948F
:10142000F008EC0166277727CB016C197D098E093E
:101430009F094AE00E94F5088C0F9D1FDF91CF9114
:10144000FF90EF90DF90CF9008954AE0DF91CF9129
:10145000FF90EF90DF90CF900C94F508CF93DF933F
:101460000E949608EC0180E691E00E9496088C0F9D
:101470009D1FDF91CF910895CF93DF93E9E7F0E0CF
:101480008491E5EBF0E0D491E1EAF0E0C491CC2363
:1014900091F081110E946008EC2FF0E0EE0FFF1F29
:1014A000EA57FF4FA591B491EC91ED2381E090E0D4
:1014B00021F480E002C080E090E0DF91CF910895B8
:1014C000CF93DF93EC01FB0186179707B1F06081A2
:1014D00071816115710529F0448155810E94D807F9
:1014E0000CC088819981009711F00E943A161982E8
:1014F00018821D821C821B821A82CE01DF91CF913D
:1015000008950F931F93CF93DF938C01EB01FC01A0
:10151000808191810097B1F06881798161157105B1
:1015200079F0428153812C813D814217530740F06D
:101530000E9497178C819D81F8019583848313C045
:101540000E943A1688819981F801918380838A816B
:101550009B81938382838C819D819583848319826F
:1015600018821B821A821D821C82DF91CF911F91EB
:101570000F910895CF93DF9300D0CDB7DEB7FC0174
:1015800011821082138212821582148223E229832F
:101590001A82BE016F5F7F4FFB0101900020E9F7C7
:1015A0003197AF01461B570B0E94D8070F900F9041
:1015B000DF91CF9108951F93CF93DF93282F30E0D1
:1015C000F901EE58FF4F8491F901E255FF4FD49194
:1015D000F901E656FF4FC491CC23C1F0162F8111BB
:1015E0000E946008EC2FF0E0EE0FFF1FE057FF4F66
:1015F000A591B4919FB7F894111104C08C91D09526
:10160000D82302C0EC91DE2BDC939FBFDF91CF91FA
:101610001F910895CF93DF9390E0FC01E255FF4FB7
:101620002491FC01E656FF4F8491882361F190E0FC
:10163000880F991FFC01E859FF4FC591D491FC0117
:10164000E057FF4FA591B491611109C09FB7F8947D
:101650008881209582238883EC912E230BC06230F1
:1016600061F49FB7F8948881322F30958323888363
:10167000EC912E2B2C939FBF06C08FB7F894E88176
:101680002E2B28838FBFDF91CF9108951F93CF9387
:10169000DF93182FEB0161E00E940A0B209711F4F1
:1016A00060E004C0CF3FD10539F461E0812FDF91C4
:1016B000CF911F910C94DB0AE12FF0E0EE58FF4F21
:1016C000E491E330F9F048F4E130B9F0E230A1F50B
:1016D00084B5806284BDC8BD34C0E730E9F0E8302D
:1016E00019F1E43049F58091800080628093800098
:1016F000D0938B00C0938A0024C084B5806884BDD9
:10170000C7BD1FC080918000806880938000D09307
:101710008900C093880015C08091B00080688093D4
:10172000B000C093B3000DC08091B0008062809380
:10173000B000C093B40005C0C038D1050CF0B5CFDF
:10174000AFCFDF91CF911F9108958F929F92AF926B
:10175000BF92CF92DF92EF92FF926B017C010E94C9
:1017600012074B015C01C114D104E104F104F1F052
:101770000E941207DC01CB0188199909AA09BB094B
:10178000883E9340A105B10570F321E0C21AD1084B
:10179000E108F10888EE880E83E0981EA11CB11CB8
:1017A000C114D104E104F10419F7DDCFFF90EF90EB
:1017B000DF90CF90BF90AF909F908F9008950F9340
:1017C0001F93CF93DF9300D000D000D0CDB7DEB70A
:1017D0008C01CE0101960E94890868E2CE01019633
:1017E0000E94A807B801CE0101960E94BF0869E2D5
:1017F000CE0101960E94A8074D815E8169817A81A0
:1018000080EB94E00E948F0686EB92E00E94BD0878
:10181000C8010E94A80862E070E080E090E00E94A9
:10182000A50BCE0101960E94030826960FB6F894E8
:10183000DEBF0FBECDBFDF91CF911F910F910895F5
:1018400082E994E00E94030888E994E00E9403087A
:101850008EE994E00E94030884EA94E00E94030861
:101860008AEA94E00E9403088EE291E09093B1042A
:101870008093B0048091BC039091BD03805B944041
:1018800071F4E091C304F091C40490818091C50487
:101890008095892380831092BD031092BC0380E45D
:1018A00091E09093D0048093CF0480918A048111B9
:1018B0000BC0109289041092880410928704109231
:1018C000860481E080938A04809186049091870445
:1018D000FC01A0E0B0E0309741F1228133812F5C20
:1018E0003440F1F4109729F02081318111963C9316
:1018F0002E932091880430918904E217F30721F494
:10190000B0938904A09388048E179F0731F48081D7
:1019100091819093870480938604CF010C943A16AA
:10192000DF010190F081E02DD6CF0895CF93DF93B2
:1019300000D000D0CDB7DEB7789484B5826084BD86
:1019400084B5816084BD85B5826085BD85B58160C3
:1019500085BD80916E00816080936E001092810041
:1019600080918100826080938100809181008160FC
:1019700080938100809180008160809380008091BD
:10198000B10084608093B1008091B0008160809349
:10199000B00080917A00846080937A0080917A0010
:1019A000826080937A0080917A00816080937A00CF
:1019B00080917A00806880937A001092C10061E083
:1019C0008AE00E940A0B61E08BE00E940A0B61E052
:1019D00088E00E940A0B61E089E00E940A0B61E046
:1019E0008CE00E940A0B61E08DE00E940A0B60E02F
:1019F00087E00E940A0B60E084E00E940A0B61E02D
:101A000085E00E940A0B61E085E00E94DB0AE0911C
:101A1000ED03F091EE0382E08083E091E903F09121
:101A2000EA031082E091EB03F091EC0380E1808304
:101A30001092F503E091F103F091F20386E08083C8
:101A4000E091EF03F091F003808180618083E09169
:101A5000EF03F091F003808188608083E091EF03D1
:101A6000F091F003808180688083E091EF03F09132
:101A7000F00380818F7D80831092CB041092CA0482
:101A80001092C9041092C8041092C7041092C604A0
:101A90008DE991E09093CD048093CC049091BC04A7
:101AA000963108F058C02DEB30E03093C7042093F6
:101AB000C6042BE931E03093C9042093C8042CE21A
:101AC00031E03093CB042093CA04409168009830F1
:101AD00058F031E09E3008F430E021E0822F01C060
:101AE000880F3A95EAF701C084E0842B8093680060
:101AF000983038F09E3040F0963148F42CE630E0D3
:101B000008C02DE630E005C02BE630E002C020E042
:101B100030E03093C4042093C304983030F481E063
:101B200001C0880F9A95EAF70EC0292F30E09E3049
:101B300018F42850310902C02E50310981E001C04B
:101B4000880F2A95EAF78093C5048091CC04909180
:101B5000CD040197F1F78091CA049091CB04892BB1
:101B600049F1E091BC03F091BD0324E0E03BF207B2
:101B700009F1309739F0A389B4899C9185898095C2
:101B800089238C938091CE048E7F8093CE04109213
:101B9000BB031092BA0380EB94E09093BD03809353
:101BA000BC03E091C304F091C40490818091C5040A
:101BB000892B80831092C8031092C7031092C6032A
:101BC0001092C5031092C40331E03093C303109206
:101BD000C20361E082E10E94DB0A61E083E10E94CE
:101BE000DB0A8091B9008E7F8093B9008091B900A3
:101BF0008D7F8093B90088E48093B80085E480935A
:101C0000BC008FE091E09093C1038093C00380E11A
:101C100091E09093BF038093BE0382E38093BA0068
:101C20008EEC94E09093CA038093C90388EE93E00E
:101C3000A0E0B0E08093DB049093DC04A093DD048B
:101C4000B093DE048FEF9FEF9093E4048093E3045E
:101C50009093E6048093E50441E04093E7048DE52A
:101C600095E09093E9048093E8048091DA042FB71B
:101C7000882309F450C0F8948091D5039091D6033D
:101C8000A091D703B091D8032FBF2091D5043091F4
:101C9000D604821B930B2FB7F8944091D503509133
:101CA000D6036091D7037091D8032FBF4093D5041A
:101CB0005093D6046093D7047093D804092E000C77
:101CC000AA0BBB0B4091D1045091D2046091D30474
:101CD0007091D404480F591F6A1F7B1F4093D10491
:101CE0005093D2046093D3047093D4044091DF04E2
:101CF0005091E0046091E1047091E204840F951F1B
:101D0000A61FB71F8093DF049093E004A093E10423
:101D1000B093E2042AC0F8948091D5039091D60341
:101D2000A091D703B091D8032FBF8093D104909393
:101D3000D204A093D304B093D4048093D504909399
:101D4000D604A093D704B093D8048093DF04909373
:101D5000E004A093E104B093E2048091E504909143
:101D6000E6049093E4048093E30481E08093D90433
:101D70001092DA040E943C0A892BF1F083EF91E083
:101D80000E942E0A84E092E00E942E0A65E28FE310
:101D90000E9453048DEB91E00E942E0A6EE58FE3C2
:101DA0000E94530481EE91E00E942E0A60ED77E0DC
:101DB00080E090E00E94A50B24E6822E3AE0932E6C
:101DC00080EB94E00E942A02892B09F415C262E09C
:101DD00070E080E090E00E94A50B80EB94E00E9410
:101DE00042028093CB038B3729F0883219F08C3371
:101DF00009F05EC28CEC93E09A838983AA24A394B1
:101E0000B12C80EB94E00E942A02892BE1F061E082
:101E100070E080E090E00E94A50B80EB94E00E94CF
:101E20004202A981BA818D93BA83A983BFEFAB1A0D
:101E3000BB0AE9E0AE16B10431F08D3721F08932EA
:101E400011F08E33F1F60BEC13E0950125533C4F66
:101E50003A832983D8018D918D010E94F008E98190
:101E6000FA810E171F07B1F781E691E00E94BD08C5
:101E70008091CC038B3709F0B1C18BE192E00E94D5
:101E80002E0A8091CD03082E000C990BC097889ED6
:101E90009001899E300D11248091CE03082E000CF4
:101EA000990BC097989EA001999E500D1124420F46
:101EB000531F8091CF03082E000C990BC097480F39
:101EC000591F5A8349838091D003082E000C990B27
:101ED000C097889E7001899EF00C11248091D103D7
:101EE000082E000C990BC097989E9001999E300D7A
:101EF00011242E0D3F1DE090D2030E2C000CFF0884
:101F0000C701C0978901080F191F8DE292E00E9456
:101F1000BD0889E492E00E94BD0889819A816C0124
:101F2000990FEE08FF08C701B6010E94040A81E577
:101F300092E00E94BD082801012E000C6608770877
:101F4000C301B2010E94040A80E691E00E94960853
:101F5000A981BA81A936E1E0BE0708F03FC10F3F71
:101F6000110511F008F03AC1CD018B5A9109439740
:101F700088F460E088E00E94DB0A61E089E00E946A
:101F8000DB0A61E08CE00E94DB0A60E08DE00E94E9
:101F9000DB0A16C029813A812B30310588F461E0D3
:101FA00088E00E94DB0A60E089E00E94DB0A60E0D2
:101FB0008CE00E94DB0A61E08DE00E94DB0A06C033
:101FC00089819A818F559140099748F389819A8137
:101FD0000B97803A910508F040C061E088E00E94CC
:101FE000DB0A60E089E00E94DB0A61E08CE00E948D
:101FF000DB0A60E08DE00E94DB0A49815A814A35A4
:102000005105C4F0A1E0BFEFA70196012A5531099F
:10201000410951090E94E81320E530E040E050E01A
:102020000E94BB130FEF020F89819A818B359105B6
:10203000BCF401C00FEFAFEFB0E0A70196012B5049
:102040003109410951090E94DA132FE430E040E0E0
:1020500050E00E94BB13122F04C01FEF0FEF01C00E
:102060001FEF89819A818E5B9109813A910508F071
:1020700041C060E088E00E94DB0A61E089E00E94E4
:10208000DB0A60E08CE00E94DB0A61E08DE00E94E8
:10209000DB0AA981BA81AF30B140BCF4AFEFB0E048
:1020A000A70196012E503140410951090E94DA13CF
:1020B00021E530E040E050E00E94BB13022F29816F
:1020C0003A812E303140ACF001C00FEFA7019601EC
:1020D0002D5B310941095109A1E0BFEF0E94E813CE
:1020E00021E530E040E050E00E94BB131FEF120FEB
:1020F00001C01FEF8EE592E00E94BD08802F90E0A6
:10210000A0E0B0E089839A83AB83BC834AE0BC0142
:10211000CD010E94F5088FE692E00E94BD08C12E15
:10212000D12CE12CF12C4AE0C701B6010E94F50840
:1021300080E691E00E949608C301B2010E949E12BF
:102140002B013C0169817A818B819C810E949C12C8
:10215000A30192010E94FD1220E030E04FE753E41A
:102160000E94C21469837A838B839C83C701B60162
:102170000E949C12A30192010E94FD1220E030E017
:102180004FE753E40E94C2146B017C0182E892E0A5
:102190000E94BD0842E069817A818B819C810E9406
:1021A000360985E992E00E94BD0842E0C701B60108
:1021B0000E94360980E691E00E94960869817A8142
:1021C0008B819C810E9434158AE00E94460BC701D6
:1021D000B6010E9434158BE00E94460B8091CC031F
:1021E00091EC980F923040F494E0A916B10421F4D8
:1021F0006091CD030E9453048091D904882309F48F
:1022000054C02FB7F8948091D5039091D603A09134
:10221000D703B091D8032FBF8093D5049093D604F1
:10222000A093D704B093D8042091E7042223E9F1C6
:102230004091DF045091E0046091E1047091E20468
:10224000841B950BA60BB70B4091DB045091DC046B
:102250006091DD047091DE0484179507A607B70727
:1022600020F18091E3049091E404009729F4109206
:10227000D9041092DA0419C001979093E404809372
:10228000E3048FEC94E00E94D4008091D5049091F7
:10229000D604A091D704B091D8048093DF04909322
:1022A000E004A093E104B093E2040E94CA0088CD48
:1022B0000E94F008AA24A394B12CD6CD1092E0037A
:1022C0001092DF0388EE93E0A0E0B0E08093E1039A
:1022D0009093E203A093E303B093E4032AE031E098
:1022E0003093DE032093DD0325EC30E03093EA03E6
:1022F0002093E90324EC30E03093EC032093EB03CC
:1023000020EC30E03093EE032093ED0321EC30E03D
:102310003093F0032093EF0322EC30E03093F2038C
:102320002093F10326EC30E03093F4032093F30381
:102330001092F6031092F7031092F8031092F9032B
:1023400010927D0410927C0480937E0490937F040D
:10235000A0938004B09381048CE191E090937B047E
:1023600080937A0480E491E09093D0048093CF042A
:102370001092D1041092D2041092D3041092D4047B
:102380001092D5041092D6041092D7041092D8045B
:102390001092DB041092DC041092DD041092DE0433
:1023A0001092DF041092E0041092E1041092E20413
:1023B0008FEF9FEF9093E4048093E3041092D9048D
:1023C0001092DA041092E7041092E9041092E804E3
:1023D00080918A0481110BC01092890410928804A4
:1023E000109287041092860481E080938A0484E02E
:1023F00090E00E94A215FC01118210822FEC34E0C3
:1024000033832283E0918804F0918904309749F462
:102410009093890480938804909387048093860422
:1024200006C09183808390938904809388041092DE
:10243000B3041092B20488EE93E0A0E0B0E0809381
:10244000B4049093B504A093B604B093B7048EE29D
:1024500091E09093B1048093B0041092C70410925D
:10246000C6041092C9041092C8041092CB041092B2
:10247000CA041092CD041092CC046091CE046E7FF9
:102480006D7F6093CE046695617081E0682783E07C
:102490000E94DB0A61E083E00E940A0BE1EBF0E0BE
:1024A000E491E093C004EDE9F0E0E491F0E0EE0F98
:1024B000FF1FE057FF4F859194919093C204809342
:1024C000C10460E082E00E940A0B8091CE0481FD8D
:1024D00004C061E082E00E94DB0A82E08093BC04D9
:1024E000E0EBF0E0E491E093BD04ECE9F0E0E4918E
:1024F000F0E0EE0FFF1FEA57FF4F85919491909304
:10250000BF048093BE048AEA94E00E94890884EAAA
:1025100094E00E9489088EE994E00E94890888E985
:1025200094E00E94890882E994E00C9489080E9452
:10253000D91208F481E00895E89409C097FB3EF4AD
:1025400090958095709561957F4F8F4F9F4F992300
:10255000A9F0F92F96E9BB279395F695879577957E
:102560006795B795F111F8CFFAF4BB0F11F460FF3E
:102570001BC06F5F7F4F8F4F9F4F16C0882311F096
:1025800096E911C0772321F09EE8872F762F05C0AA
:10259000662371F096E8862F70E060E02AF09A9545
:1025A000660F771F881FDAF7880F9695879597F93A
:1025B0000895990F0008550FAA0BE0E8FEEF1616D4
:1025C0001706E807F907C0F012161306E407F50727
:1025D00098F0621B730B840B950B39F40A2661F09B
:1025E000232B242B252B21F408950A2609F4A1403E
:1025F000A6958FEF811D811D08950E9410130C94E4
:1026000081130E94731338F00E947A1320F09523EF
:1026100011F00C946A130C94701311240C94B513DC
:102620000E94921370F3959FC1F3950F50E0551FD0
:10263000629FF001729FBB27F00DB11D639FAA2717
:10264000F00DB11DAA1F649F6627B00DA11D661F66
:10265000829F2227B00DA11D621F739FB00DA11D87
:10266000621F839FA00D611D221F749F3327A00D41
:10267000611D231F849F600D211D822F762F6A2FDD
:1026800011249F5750409AF0F1F088234AF0EE0F42
:10269000FF1FBB1F661F771F881F91505040A9F76F
:1026A0009E3F510580F00C946A130C94B5135F3F64
:1026B000E4F3983ED4F3869577956795B795F795AB
:1026C000E7959F5FC1F7FE2B880F911D9695879523
:1026D00097F9089597F99F6780E870E060E00895A2
:1026E0009FEF80EC089500240A941616170618062A
:1026F0000906089500240A94121613061406050606
:102700000895092E0394000C11F4882352F0BB0F96
:1027100040F4BF2B11F460FF04C06F5F7F4F8F4FF9
:102720009F4F089557FD9058440F551F59F05F3F34
:1027300071F04795880F97FB991F61F09F3F79F0E3
:1027400087950895121613061406551FF2CF469565
:10275000F1DF08C0161617061806991FF1CF8695E7
:102760007105610508940895E894BB2766277727CB
:10277000CB0197F90895052E97FB1EF400940E9453
:10278000D21357FD07D00E94241407FC03D04EF447
:102790000C94D21350954095309521953F4F4F4F53
:1027A0005F4F089590958095709561957F4F8F4FFD
:1027B0009F4F08950E944614A59F900DB49F900DC1
:1027C000A49F800D911D11240895B7FF0C94DA1376
:1027D0000E94DA13821B930B08952F923F924F921F
:1027E0005F926F927F928F929F92AF92BF92CF92A1
:1027F000DF92EF92FF920F931F93CF93DF93CDB7AA
:10280000DEB7CA1BDB0B0FB6F894DEBF0FBECDBF21
:1028100009942A88398848885F846E847D848C84F2
:102820009B84AA84B984C884DF80EE80FD800C81FB
:102830001B81AA81B981CE0FD11D0FB6F894DEBFDE
:102840000FBECDBFED010895A1E21A2EAA1BBB1B3E
:10285000FD010DC0AA1FBB1FEE1FFF1FA217B3076C
:10286000E407F50720F0A21BB30BE40BF50B661F82
:10287000771F881F991F1A9469F760957095809546
:1028800090959B01AC01BD01CF010895A29FB001BD
:10289000B39FC001A39F700D811D1124911DB29F94
:1028A000700D811D1124911D08955058BB27AA2732
:1028B0000E946D140C9481130E94731338F00E94CF
:1028C0007A1320F039F49F3F19F426F40C94701316
:1028D0000EF4E095E7FB0C946A13E92F0E94921323
:1028E00058F3BA17620773078407950720F079F445
:1028F000A6F50C94B4130EF4E0950B2EBA2FA02D70
:102900000B01B90190010C01CA01A0011124FF279C
:10291000591B99F0593F50F4503E68F11A16F04097
:10292000A22F232F342F4427585FF3CF4695379596
:102930002795A795F0405395C9F77EF41F16BA0B5B
:10294000620B730B840BBAF09150A1F0FF0FBB1F09
:10295000661F771F881FC2F70EC0BA0F621F731F52
:10296000841F48F4879577956795B795F7959E3FAF
:1029700008F0B0CF9395880F08F09927EE0F979540
:10298000879508950E94D6140C9481130E947A139F
:1029900058F00E94731340F029F45F3F29F00C9423
:1029A0006A1351110C94B5130C9470130E94921376
:1029B00068F39923B1F3552391F3951B550BBB276E
:1029C000AA2762177307840738F09F5F5F4F220FB3
:1029D000331F441FAA1FA9F335D00E2E3AF0E0E8AA
:1029E00032D091505040E695001CCAF72BD0FE2FF4
:1029F00029D0660F771F881FBB1F26173707480788
:102A0000AB07B0E809F0BB0B802DBF01FF2793583F
:102A10005F4F3AF09E3F510578F00C946A130C9486
:102A2000B5135F3FE4F3983ED4F3869577956795A9
:102A3000B795F7959F5FC9F7880F911D9695879574
:102A400097F90895E1E0660F771F881FBB1F621793
:102A500073078407BA0720F0621B730B840BBA0B51
:102A6000EE1F88F7E09508950E943B156894B11118
:102A70000C94B51308950E949A1388F09F5798F00C
:102A8000B92F9927B751B0F0E1F0660F771F881F73
:102A9000991F1AF0BA95C9F714C0B13091F00E948D
:102AA000B413B1E008950C94B413672F782F8827DE
:102AB000B85F39F0B93FCCF3869577956795B395B4
:102AC000D9F73EF490958095709561957F4F8F4F23
:102AD0009F4F08950E94D91208F48FEF08950E9425
:102AE000D912880B990B089597FB072E16F40094C2
:102AF00007D077FD09D00E94881507FC05D03EF469
:102B0000909581959F4F0895709561957F4F089599
:102B1000AA1BBB1B51E107C0AA1FBB1FA617B70703
:102B200010F0A61BB70B881F991F5A95A9F780951F
:102B30009095BC01CD010895EE0FFF1F0590F49113
:102B4000E02D09940F931F93CF93DF93823091056B
:102B500010F482E090E0E091EC04F091ED0420E0CC
:102B600030E0A0E0B0E0309719F14081518102815E
:102B7000138148175907C8F08417950769F410970F
:102B800031F012960C93129713961C9327C0009362
:102B9000EC041093ED0422C02115310519F0421701
:102BA000530718F49A01BD01EF01DF01F801DBCFF3
:102BB00021153105F9F0281B390B2430310580F43B
:102BC0008A819B816115710521F0FB0193838283CA
:102BD00004C09093ED048093EC04FE01329644C04F
:102BE000FE01E20FF31F8193919322503109398343
:102BF00028833AC02091EA043091EB04232B41F45E
:102C000020910201309103013093EB042093EA04F8
:102C100020910001309101012115310541F42DB7BA
:102C20003EB74091040150910501241B350BE09102
:102C3000EA04F091EB04E217F307A0F42E1B3F0B1C
:102C40002817390778F0AC014E5F5F4F241735071E
:102C500048F04E0F5F1F5093EB044093EA048193BA
:102C6000919302C0E0E0F0E0CF01DF91CF911F919E
:102C70000F910895CF93DF93009709F481C0FC0171
:102C8000329713821282A091EC04B091ED04109758
:102C900081F420813181820F931F2091EA043091C9
:102CA000EB042817390751F5F093EB04E093EA049D
:102CB00067C0ED0120E030E0CE17DF0740F44A8125
:102CC0005B819E0141155105F1F0EA01F5CFD383F7
:102CD000C28340815181840F951FC817D90759F4C9
:102CE00088819981840F951F0296918380838A81C0
:102CF0009B81938382832115310529F4F093ED04A0
:102D0000E093EC043DC0E901FB83EA8349915991CA
:102D1000C40FD51FEC17FD0761F480819181840FEA
:102D2000951F0296E90199838883828193819B8311
:102D30008A83E0E0F0E012968D919C9113970097C2
:102D400019F0FD01DC01F7CF8D919C9111979D0148
:102D50002E5F3F4F820F931F2091EA043091EB04C6
:102D60002817390769F4309729F41092ED0410926E
:102D7000EC0402C013821282B093EB04A093EA0425
:102D8000DF91CF910895A0E0B0E0E9ECF6E10C947A
:102D9000F113EC01009721F4CB010E94A215B4C0FD
:102DA000FC01E60FF71F9C0122503109E217F307DF
:102DB00008F4A8C0D9010D911C91119706171707A7
:102DC000B0F00530110508F49BC0C80104978617C0
:102DD000970708F495C002501109061B170B0193C1
:102DE00011936D937C93CF010E943A1689C05B01C9
:102DF000A01AB10A4C01800E911EA091EC04B09172
:102E0000ED04612C712CE12CF12C109709F446C0D3
:102E10008D919C911197A815B905B1F56C0142E00F
:102E2000C40ED11CCA14DB0478F14C018A189B082B
:102E3000640142E0C40ED11C1296BC901297139606
:102E4000AC91B5E0CB16D10440F0B282A38391825D
:102E50008082D9016D937C9309C00E5F1F4F800F54
:102E6000911FF90191838083EB2DFA2FE114F10476
:102E700031F0D7011396FC93EE93129741C0F09373
:102E8000ED04E093EC043CC06816790608F43C01BC
:102E90007D0112960D90BC91A02DB7CF8091EA04D0
:102EA0009091EB0488169906E1F466167706C8F44B
:102EB0008091000190910101009741F48DB79EB778
:102EC0004091040150910501841B950BE817F90707
:102ED000C8F4F093EB04E093EA04F9017183608392
:102EE0000FC0CB010E94A2157C01009759F0A801E8
:102EF000BE010E948E17CE010E943A16C70104C07F
:102F0000CE0102C080E090E0CDB7DEB7EEE00C94D9
:102F10000D1481E090E0F8940C949E17FB01DC0105
:102F200002C001900D9241505040D8F70895FB0126
:102F3000DC0101900D920020E1F7089510E0C2E657
:102F4000D0E004C0FE010E949C152196C336D10733
:062F5000C9F7F894FFCF61
:102F56000000EE04800000000000C5068F068D000C
:102F66008902BE009C00B0000000000093016601CB
:102F760064023A015E014A013B0100000000DA01E9
:102F86008F0664023A012A024202C20100000000D2
:102F9600D40053656E64696E67204D6F64756C6509
:102FA600205265717565737420547970653A2000F6
:102FB6000D0A00526573706F6E65207265636576E3
:102FC6006965643A20004E616D65207265636576B9
:102FD6006965643A200043726561746F7220726598
:102FE6006365766965643A2000537461747573206D
:102FF60072656365766965643A20004E6F206E617E
:103006006D6520726563657669656421004E616D44
:103016006520726571756573746564004E6F206313
:10302600726561746F722072656365766965642185
:103036000043726561746F72207265717565737491
:103046006564004D6F64756C6520446574616374D6
:103056006564200052657175657374696E67204DED
:103066006F64756C6520496E666F007365742052D7
:103076006F626F7420636F6E74726F6C004A6F7943
:10308600737469636B20436F6E74726F6C20726524
:103096006365697665643A2000416E676C653A201F
:1030A6000020416D706C69747562653A20004C654C
:1030B6006674204D6F746F72204D69783A20002037
:1030C6005269676874204D6F746F72204D69783A43
:1030D60020004C656674204D6F746F7220506F77B8
:1030E60065723A2000205269676874204D6F746FCC
:1030F6007220506F7765723A20006E616E00696EBD
:1031060066006F76660053656E64656420426C7572
:0E31160065746F6F746820446174613A200024
:00000001FF
