:100000000C9463000C948B000C948B000C9486036E
:100010000C9486030C9486030C948B000C948B0038
:100020000C948B000C948B000C948B000C948B0024
:100030000C948B000C948B000C948B000C948B0014
:100040000C94BA0E0C948B000C94B10F0C948B0F83
:100050000C948B000C948B000C948B000C948B00F4
:100060000C9458020C948B00000000002400270020
:100070002A0000000008000201000003040700003D
:1000800000000000000000000000230026002900FE
:1000900000000000250028002B00040404040404D0
:1000A0000404020202020202030303030303010227
:1000B00004081020408001020408102001020408F6
:1000C00010201A10E30F11241FBECFEFD8E0DEBFBF
:1000D000CDBF12E0A0E0B1E0E2EFFFE202C0059088
:1000E0000D92A83CB107D9F725E0A8ECB2E001C019
:1000F0001D92A230B207E1F710E0C2E6D0E004C0E2
:100100002197FE010E94EA15C136D107C9F70E9466
:10011000FC100C94EC170C940000FC01918D228DC6
:10012000892F90E0805C9F4F821B91098F739927E4
:10013000089580E090E0892B29F00E941C0E811127
:100140000C9400000895DC015996ED91FC915A97AA
:10015000309709F00994089585ED8093BC00809153
:10016000BC0084FDFCCF1092F20408954091750309
:10017000262F30E0240F311D21323105DCF420918F
:10018000F2042430C9F4FC0180E090E0861758F4B2
:10019000309175032191DC01AB5ABC4FA30FB11D07
:1001A0002C930196F3CF80917503680F60937503CC
:1001B00080E0089581E0089582E008950895CF9346
:1001C000DF93AC01E091F704F091F8043097F1F07F
:1001D0009091F6048091F5049817C0F090E0292FD3
:1001E00030E02617370754F4D901AB5CBC4FEA0165
:1001F000C20FD31F28812C939F5FF1CF1092F6047A
:100200006093F504CB01DF91CF910994DF91CF91F9
:1002100008950895E091F6048091F504E81730F40C
:10022000F0E0EB5CFC4F808190E008958FEF9FEF52
:1002300008959091F6048091F504981750F4E92FF1
:10024000F0E0EB5CFC4F208130E09F5F9093F60480
:1002500002C02FEF3FEFC90108958091F50490E0AF
:100260002091F604821B91090895CF92DF92EF92BC
:10027000FF920F931F93CF93DF937C01CB018A01F1
:1002800020913403222389F0EB016B01C40ED51EAB
:10029000CC15DD0569F06991D701ED91FC910190D4
:1002A000F081E02DC7010995F3CF642F0E94B600BD
:1002B000C801DF91CF911F910F91FF90EF90DF90D8
:1002C000CF900895CF93DF931F92CDB7DEB76983A8
:1002D000209134032223D1F02091F304203240F006
:1002E00021E030E0FC013383228380E090E015C000
:1002F0008091F404E82FF0E0EC5EFC4F998190834C
:100300008F5F8093F4048093F30405C061E0CE0115
:1003100001960E94B60081E090E00F90DF91CF91AE
:1003200008952091EA043091EB042817390771F4FD
:100330009091E8048091E904981741F0E091E80475
:10034000F0E0EC52FD4F808190E008958FEF9FEF39
:1003500008951F93CF93DF93DC015C968D919C9160
:100360005D97009739F421E030E013963C932E938B
:1003700012973BC05196ED91FC91529750962C915B
:100380005097322F30951FB75E964C915E97742F21
:10039000727041FD6095F8944081772311F0422BF3
:1003A00001C043234083EC012197F1F748E05081DD
:1003B00060FF02C0522B01C053235083EC012197F0
:1003C000F1F76695415099F78081772319F08323DF
:1003D000808302C0282B20831FBF5C968D919C9147
:1003E0005D970197F1F781E090E0DF91CF911F9148
:1003F00008952091EA043091EB042817390771F42D
:100400008091E9042091E80490E0805C9F4F821B7A
:10041000910960E470E00E94C215089580E090E0C8
:1004200008952091EA043091EB0428173907B9F4B4
:100430009091E8048091E904981789F0E091E8042C
:10044000F0E0EC52FD4F80812091E80430E02F5F16
:100450003F4F2F7333272093E80490E008958FEFE8
:100460009FEF0895089580E090E00895FC01848D49
:10047000DF01A80FB11DA35ABF4F2C91848D90E0CE
:1004800001968F739927848FA689B7892C93A089A9
:10049000B1898C91837080648C93938D848D981333
:1004A00006C00288F389E02D80818F7D80830895C6
:1004B0001F920F920FB60F9211242F933F934F93D9
:1004C0005F936F937F938F939F93AF93BF93EF93BC
:1004D000FF938091B900887F803609F49CC068F54D
:1004E000883209F45BC090F4803109F454C038F4C8
:1004F000882309F4F6C0883009F44DC0F6C088316D
:1005000009F44CC0803209F45DC0EFC0803409F4B6
:1005100068C048F4803309F455C0883309F0E5C059
:1005200080939803D8C0803509F44FC0883509F40A
:100530005DC0883409F0D9C0D6C0883909F4C7C075
:10054000A8F4883709F467C038F4883609F463C022
:10055000803709F460C0C9C0883809F4B8C0803950
:1005600009F45FC0803809F0C0C05BC0803B09F46B
:1005700086C038F4803A09F466C0883A09F47FC02E
:10058000B4C0803C09F4A7C0883C09F4A4C0883BEF
:1005900009F48AC0AAC08091BB0310C09091BA032D
:1005A0008091B903981770F5E091BA0381E08E0F3E
:1005B0008093BA03F0E0E756FC4F80818093BB0044
:1005C00085EC86C0809398038EC0E091BA0381E0E9
:1005D0008E0F8093BA038091BB00F0E0E756FC4F8A
:1005E00080839091BA038091B9036EC0E091BA0301
:1005F00081E08E0F8093BA038091BB00F0E0E75654
:10060000FC4F80838091F10481116DC081E0809363
:10061000F00484EA61C083E08093F20410929703AF
:10062000CFCF80919703803208F051C0E0919703BB
:1006300081E08E0F809397038091BB00F0E0E95832
:10064000FC4F8083BDCF85EC8093BC001092F204F8
:1006500080919703803230F4E0919703F0E0E958FD
:10066000FC4F10826091970370E0E091EC04F091F0
:10067000ED0487E793E009951092970336C084E074
:100680008093F2041092760310927503E091EE04C9
:10069000F091EF04099580917503811105C081E007
:1006A0008093750310925503E091760381E08E0FDD
:1006B00080937603F0E0EB5AFC4F80818093BB007F
:1006C0009091760380917503981708F479CF85E8A7
:1006D0008093BC000AC085EC8093BC001092F204A9
:1006E00004C0109298030E94AC00FF91EF91BF915B
:1006F000AF919F918F917F916F915F914F913F91BA
:100700002F910F900FBE0F901F9018951F920F9270
:100710000FB60F9211242F933F934F935F936F93D4
:100720007F938F939F93AF93BF93EF93FF93E0914A
:10073000EA04F091EB04309709F451C0968DA68538
:10074000B785858591FF04C09C91892329F447C012
:100750009C91892309F043C0A389B4899C91858920
:10076000809589238C93868997890197F1F7608D0D
:10077000718DA685B785558538E020E0CB010197BE
:10078000F1F7822F90E095958795282F4C9145237E
:1007900009F02068315091F7868D81FD2095809178
:1007A000E90490E001968F7399273091E804381797
:1007B00049F0A091E904B0E0AC52BD4F2C93809376
:1007C000E90403C0868D8160868F828D938D0197A9
:1007D000F1F7A389B4899C918589892B8C93FF912A
:1007E000EF91BF91AF919F918F917F916F915F91A9
:1007F0004F913F912F910F900FBE0F901F90189522
:10080000CF93DF93D82FC62F81E0809334038AE201
:100810008093D0021092F4041092F3046D2F8DE5B2
:1008200094E00E9462016C2F8DE594E00E946201C9
:100830009091F304913208F044C08091F204811148
:10084000FCCF82E08093F20481E08093F1048FEF8B
:10085000809398031092BA039093B903A4E1B3E094
:10086000E9E9F3E080E0981721F02D9121938F5F63
:10087000FACF1092BB038091BB0384658093BB03C6
:100880008091F004813061F41092F0048091BB03F8
:100890008093BB008091BC0083FDF8CF85EC01C044
:1008A00085EE8093BC008091F2048230E1F3809168
:1008B00098038F3F31F080919803803211F080913E
:1008C00098031092F4041092F3041092340382E41B
:1008D00091E00E94FF098D2F0E94320A87E992E081
:1008E0000E94FF098C2F0E94320A80E691E0DF917E
:1008F000CF910C94D8094F925F926F927F928F9212
:100900009F92AF92BF92CF92DF92EF92FF920F939E
:100910001F93CF93DF93CDB7DEB728970FB6F89428
:10092000DEBF0FBECDBF87E894E00E94F901892B9E
:1009300009F458C262E070E080E090E00E94440D4B
:1009400087E894E00E9411028093C8028B3729F057
:10095000883219F08C3309F03FC229EC32E03A8337
:100960002983CC24C394D12C87E894E00E94F90118
:10097000892BE1F061E070E080E090E00E94440D9E
:1009800087E894E00E941102A981BA818D93BA830D
:10099000A983BFEFCB1ADB0AE9E0CE16D10431F010
:1009A0008D3721F0893211F08E33F1F628EC32E0E8
:1009B0003A832983C60188539D4F7C01A981BA815E
:1009C0008D91BA83A9830E94320AE981FA81EE15DA
:1009D000FF05A1F781E691E00E94FF098091C8021E
:1009E0008B3709F0D6C1F8E0CF16D10409F0FAC16F
:1009F0008091C902082E000C990BC09754E6589FAD
:100A00009001599F300D11243A8329838091CA02A5
:100A1000082E000C990BC0974AE0489F9001499F0F
:100A2000300D112489819A81820F931F9A838983C3
:100A30008091CB02082E000C990BC097A981BA8136
:100A4000A80FB91FBA83A9838091CC02082E000C8D
:100A5000990BC097589F7001599FF00C11248091F9
:100A6000CD02082E000C990BC097489F9001499F1A
:100A7000300D1124E20EF31E8091CE02082E000CE0
:100A8000990BC097E80EF91E83E691E00E94FF09DA
:100A90008FE791E00E94FF09E981FA814F01FF0F82
:100AA000AA08BB08C501B4010E94460B8BE891E07F
:100AB0000E94FF0927010F2C000C66087708C3016C
:100AC000B2010E94460B80E691E00E94D80929817C
:100AD0003A81293681E0380708F05BC19FEFE916BB
:100AE000F10411F008F055C1C9010B97803A910546
:100AF00008F041C061E088E00E947A0C60E089E083
:100B00000E947A0C61E08CE00E947A0C60E08DE03B
:100B10000E947A0CA981BA81AA35B105C4F0A1E07E
:100B2000BFEFA50194012A553109410951090E94DD
:100B3000361420E530E040E050E00E9409141FEF39
:100B4000120FE981FA81EB35F105A4F401C01FEF22
:100B5000AFEFB0E0A50194012B50310941095109D3
:100B60000E9428142FE430E040E050E00E94091475
:100B7000022F01C00FEF89819A818E5B9109813A22
:100B8000910508F041C060E088E00E947A0C61E0C5
:100B900089E00E947A0C60E08CE00E947A0C61E0AF
:100BA0008DE00E947A0C29813A812F303140BCF4CB
:100BB000AFEFB0E0A50194012E5031404109510939
:100BC0000E94281421E530E040E050E00E94091422
:100BD000122FA981BA81AE30B140ACF001C01FEF35
:100BE000A50194012D5B310941095109A1E0BFEF35
:100BF0000E94361421E530E040E050E00E940914E4
:100C00000FEF020F01C00FEF89819A818B5A910972
:100C1000439798F460E088E00E947A0C61E089E0F4
:100C20000E947A0C61E08CE00E947A0C60E08DE01A
:100C30000E947A0C0FEF1FEF18C029813A812B30E8
:100C4000310598F461E088E00E947A0C60E089E068
:100C50000E947A0C60E08CE00E947A0C61E08DE0EA
:100C60000E947A0C0FEF1FEF06C089819A818F5581
:100C70009140099738F38FE991E00E94FF09812F95
:100C800090E0A0E0B0E08D839E83AF83B8874AE018
:100C9000BC01CD010E94370A80EB91E00E94FF0960
:100CA000802E912CA12CB12C4AE0C501B4010E94E8
:100CB000370A80E691E00E94D809C301B2010E9480
:100CC000EC1269837A838B839C836D817E818F8113
:100CD00098850E94EA1229813A814B815C810E94A9
:100CE0004B1320E030E04FE753E40E9410152B0136
:100CF0003C01C501B4010E94EA1229813A814B816D
:100D00005C810E944B1320E030E04FE753E40E94E7
:100D100010154B015C0183EC91E00E94FF0942E059
:100D2000C301B2010E94780A86ED91E00E94FF099A
:100D300042E0C501B4010E94780A80E691E00E9479
:100D4000D80920E030E040E251E4C301B2010E9442
:100D5000E51287FF03C0412C512C320120E030E026
:100D600040E251E4C501B4010E94E51287FF03C0CF
:100D7000812C912C5401C301B2010E9482158AE09A
:100D80000E94E50CC501B4010E9482158BE00E940F
:100D9000E50C8091C8028C3329F593E0C916D10483
:100DA00009F56091C90280E428960FB6F894DEBF79
:100DB0000FBECDBFDF91CF911F910F91FF90EF90AC
:100DC000DF90CF90BF90AF909F908F907F906F906B
:100DD0005F904F900C9400040E94320ACC24C3947C
:100DE000D12CF8CD28960FB6F894DEBF0FBECDBF3C
:100DF000DF91CF911F910F91FF90EF90DF90CF90F7
:100E0000BF90AF909F908F907F906F905F904F902A
:100E100008951F93CF93DF9300D000D000D0CDB7BB
:100E2000DEB7CE0101960E9489099091F504809168
:100E3000F604981701F18DE594E00E941901182F2E
:100E40008BEE91E00E94FF09812F0E94320A80E61A
:100E500091E00E94D8099091F5048091F6049817CA
:100E600051F08DE594E00E941901682FCE010196A2
:100E70000E942B0FF0CF1532B9F01E3541F114321C
:100E8000C1F5BE016F5F7F4F85E794E00E94FF0BC5
:100E900081E292E00E94FF0985E794E00E94EA095E
:100EA00081E08093D10225C0BE016F5F7F4F8FE646
:100EB00094E00E94FF0B8EEF91E00E94FF098FE605
:100EC00094E00E94EA0981E08093D30212C0BE013F
:100ED0006F5F7F4F89E694E00E94FF0B8EE092E007
:100EE0000E94FF0989E694E00E94EA0981E080936C
:100EF000D2029091F5048091F604981759F08DE58F
:100F000094E00E941901BC01990F880B990B0E9473
:100F1000460BEFCFCE0101960E94860F26960FB6A4
:100F2000F894DEBF0FBECDBFDF91CF911F91089522
:100F3000CF93DF93CDB7DEB72C970FB6F894DEBF13
:100F40000FBECDBF0E947E0B892BD1F5CE0101963D
:100F50000E948909CE0107960E94590CBE01695F63
:100F60007F4FCE0101960E94200CCE0107960E9471
:100F7000860F64E2CE0101960E942B0F6FE6CE0130
:100F800001960E942B0F18861F821A8619861C86CE
:100F90001B86BE016F5F7F4FCE0107960E94FF0B3D
:100FA000CE0107960E947E0DCE0107960E94860F05
:100FB000CE0101960E94EA09CE0101960E94860F99
:100FC0000E947E0B892BF1F040E050E062E671E078
:100FD0008FE694E00E945B0F80916F049091700403
:100FE000892B09F0B4C040E050E062E671E089E688
:100FF00094E00E945B0F8091690490916A04892BB0
:1010000009F0B2C08091D302882379F1CE01019614
:101010000E94890963E2CE0101960E942B0F65E2CE
:10102000CE0101960E942B0F6FE674E0CE0101966F
:101030000E94010A18861F821A8619861C861B8642
:10104000BE016F5F7F4FCE0107960E94FF0BCE015E
:1010500007960E947E0DCE0107960E94860F109281
:10106000D302CE0101960E94860F8091D20288237E
:1010700079F1CE0101960E94890963E2CE010196C1
:101080000E942B0F6EE5CE0101960E942B0F69E6A0
:1010900074E0CE0101960E94010A18861F821A860A
:1010A00019861C861B86BE016F5F7F4FCE01079697
:1010B0000E94FF0BCE0107960E947E0DCE0107967F
:1010C0000E94860F1092D202CE0101960E94860FD6
:1010D0008091D102882309F454C0CE0101960E9468
:1010E0008909CE0107960E94590CBE01695F7F4FA6
:1010F000CE0101960E94200CCE0107960E94860F19
:1011000064E2CE0101960E942B0F65E774E0CE01E8
:1011100001960E94010A18861F821A8619861C866B
:101120001B86BE016F5F7F4FCE0107960E94FF0BAB
:10113000CE0107960E947E0DCE0107960E94860F73
:101140001092D102CE0101960E94860F1AC083E34D
:1011500092E00E94700B65E28FE30E94000485E438
:1011600092E00E94700B3FCF84E592E00E94700BEA
:101170006EE58FE30E94000489E692E00E94700B06
:1011800041CF2C960FB6F894DEBF0FBECDBFDF91D6
:10119000CF910895833081F028F4813099F0823026
:1011A000A1F008958730A9F08830B9F08430D1F4E7
:1011B000809180008F7D03C0809180008F77809325
:1011C0008000089584B58F7702C084B58F7D84BD7B
:1011D00008958091B0008F7703C08091B0008F7D1B
:1011E0008093B0000895CF93DF93EC018AE091E003
:1011F000998388831A821B821C821D821E821F8211
:10120000188619861C861D861E861F86188A198ACE
:101210001A8A1B8A8FEF9FEF9D8B8C8B1A861B86F9
:10122000188E1A8E198E8091E00481110BC01092D5
:10123000DF041092DE041092DD041092DC0481E0E1
:101240008093E00484E090E00E94F015FC0111829C
:101250001082D383C283E091DE04F091DF043097E3
:1012600049F49093DF048093DE049093DD0480932F
:10127000DC0406C0918380839093DF048093DE04B6
:10128000DF91CF9108952AE031E0FC013183208382
:101290002091E00421110BC01092DF041092DE04B3
:1012A0001092DD041092DC0421E02093E0042091F0
:1012B000DC043091DD04F901A0E0B0E0309741F1A9
:1012C0004281538184179507F1F4109729F08081AA
:1012D000918111969C938E938091DE049091DF040E
:1012E000E817F90721F4B093DF04A093DE042E176A
:1012F0003F0731F4808191819093DD048093DC0479
:10130000CF010C948816DF010190F081E02DD6CF3B
:101310000895FC01118210821382128215821482B8
:1013200040E050E062E671E00C945B0FCF93DF93F6
:10133000FC0182858823C9F12FB7F8948091BC0302
:101340009091BD03A091BE03B091BF032FBF8683D0
:101350009783A087B187208D222339F14089518955
:1013600062897389841B950BA60BB70B4485558541
:101370006685778584179507A607B707B0F0848937
:101380009589009719F4128613860FC0EF01019713
:10139000958B848BCF010E94A3008E819F81A885AD
:1013A000B985888B998BAA8BBB8BDF91CF910895E0
:1013B000009769F0FC0101900020E9F73197AF0137
:1013C000481B590BBC0180EC93E00C94BF0D80E0EE
:1013D00090E00895CF93DF93FC01448155816081B3
:1013E000718180EC93E00E94BF0DEC0180E691E0FA
:1013F0000E94D8098C0F9D1FDF91CF9108950C9406
:10140000D809EF92FF920F931F93CF93DF93FB01C5
:1014100004811581E080F180E114F10411F480E091
:101420001AC001151105B1F0EC018C819D81080FE6
:10143000191FB801CE010E94040F882381F328816F
:1014400039818C819D81B701820F931F0E94E5171E
:101450001D830C8381E0DF91CF911F910F91FF904D
:10146000EF900895682F80EC93E00C94260E8F92F5
:101470009F92AF92BF920F931F93CF93DF93CDB7FD
:10148000DEB7A1970FB6F894DEBF0FBECDBF19A28D
:10149000423008F44AE08E010F5D1F4F842E912CDC
:1014A000A12CB12CA50194010E947214E62FB90160
:1014B000CA0101501109EA3014F4E05D01C0E95C91
:1014C000D801EC93232B242B252B61F7C8010E9414
:1014D000D809A1960FB6F894DEBF0FBECDBFDF913D
:1014E000CF911F910F91BF90AF909F908F900895D3
:1014F0008F929F92AF92BF92CF92DF92EF92FF9224
:101500000F931F93CF93DF936B017C01142F9B01EB
:10151000AC010E94BD15882319F08BE792E027C02B
:1015200046015701E894B7F82FEF3FEF4FE75FE729
:10153000C501B4010E94BD1581110DC02FEF3FEF11
:101540004FE75FE7C501B4010E94E51218161CF4CD
:101550008FE792E00CC02FEF3FEF4FE75FE4C7014A
:10156000B6010E94B815181684F483E892E0DF9162
:10157000CF911F910F91FF90EF90DF90CF90BF9090
:10158000AF909F908F900C94D8092FEF3FEF4FE7CB
:101590005FECC701B6010E94E51287FDE6CF20E0AF
:1015A00030E0A901C701B6010E94E51287FF09C01A
:1015B0008DE20E94320AEC01F7FAF094F7F8F09409
:1015C00002C0C0E0D0E000E060E070E080E09FE3B7
:1015D000101741F020E030E040E251E40E94101585
:1015E0000F5FF6CFA70196010E94A4146B017C0146
:1015F0000E9489154B015C014AE00E94370AC80F1E
:10160000D91F1123A9F1C501B4010E94EA129B015F
:10161000AC01C701B6010E94A3146B017C018EE2EC
:101620000E94320AC80FD91F20E030E040E251E4A6
:10163000C701B6010E944B134B015C010E94891542
:101640006B01E12CF12C4AE0C701B6010E94370A78
:10165000C80FD91FC701B6010E94EA129B01AC0155
:10166000C501B4010E94A3146B017C011150E1F685
:10167000CE01DF91CF911F910F91FF90EF90DF90FE
:10168000CF90BF90AF909F908F900895CF92DF92B0
:10169000EF92FF92CF93DF9397FF19C06B017C010C
:1016A0008DE20E94320AEC0166277727CB016C1984
:1016B0007D098E099F094AE00E94370A8C0F9D1F01
:1016C000DF91CF91FF90EF90DF90CF9008954AE0A7
:1016D000DF91CF91FF90EF90DF90CF900C94370A7D
:1016E000CF93DF930E94D809EC0180E691E00E943D
:1016F000D8098C0F9D1FDF91CF910895CF93DF9371
:10170000E9E7F0E08491E5EBF0E0D491E1EAF0E084
:10171000C491CC2391F081110E94CA08EC2FF0E013
:10172000EE0FFF1FEA57FF4FA591B491EC91ED2307
:1017300081E090E021F480E002C080E090E0DF9161
:10174000CF910895FC0183852FB78823D1F1F894B8
:101750008091BC039091BD03A091BE03B091BF03E3
:101760002FBF26813781821B930B2FB7F8944091AE
:10177000BC035091BD036091BE037091BF032FBFA6
:101780004683578360877187092E000CAA0BBB0B19
:101790004281538164817581480F591F6A1F7B1FE5
:1017A0004283538364837583408951896289738935
:1017B000840F951FA61FB71F808B918BA28BB38BB5
:1017C0001AC0F8948091BC039091BD03A091BE0310
:1017D000B091BF032FBF82839383A483B583868395
:1017E0009783A087B187808B918BA28BB38B8689DF
:1017F0009789958B848B81E0828713860895CF9398
:10180000DF93EC01FB0186179707B1F060817181CE
:101810006115710529F0448155810E945B0F0CC050
:1018200088819981009711F00E9488161982188288
:101830001D821C821B821A82CE01DF91CF910895F6
:101840000F931F93CF93DF938C01EB01FC018081F9
:1018500091810097B1F0688179816115710579F006
:10186000428153812C813D814217530740F00E94F1
:10187000E5178C819D81F8019583848313C00E94B4
:10188000881688819981F801918380838A819B8160
:10189000938382838C819D819583848319821882AE
:1018A0001B821A821D821C82DF91CF911F910F91A2
:1018B0000895CF93DF9300D0CDB7DEB7FC0111823E
:1018C0001082138212821582148223E229831A82E3
:1018D000BE016F5F7F4FFB0101900020E9F7319758
:1018E000AF01461B570B0E945B0F0F900F90DF91CB
:1018F000CF9108951F93CF93DF93282F30E0F90104
:10190000EE58FF4F8491F901E255FF4FD491F90150
:10191000E656FF4FC491CC23C1F0162F81110E94CF
:10192000CA08EC2FF0E0EE0FFF1FE057FF4FA59124
:10193000B4919FB7F894111104C08C91D095D8231D
:1019400002C0EC91DE2BDC939FBFDF91CF911F9102
:101950000895CF93DF9390E0FC01E255FF4F24916F
:10196000FC01E656FF4F8491882361F190E0880FD7
:10197000991FFC01E859FF4FC591D491FC01E05734
:10198000FF4FA591B491611109C09FB7F894888168
:10199000209582238883EC912E230BC0623061F462
:1019A0009FB7F8948881322F309583238883EC91F8
:1019B0002E2B2C939FBF06C08FB7F894E8812E2B57
:1019C00028838FBFDF91CF9108951F93CF93DF932B
:1019D000182FEB0161E00E94A90C209711F460E040
:1019E00004C0CF3FD10539F461E0812FDF91CF9161
:1019F0001F910C947A0CE12FF0E0EE58FF4FE49128
:101A0000E330F9F048F4E130B9F0E230A1F584B503
:101A1000806284BDC8BD34C0E730E9F0E83019F118
:101A2000E43049F580918000806280938000D093FB
:101A30008B00C0938A0024C084B5806884BDC7BD74
:101A40001FC080918000806880938000D0938900BF
:101A5000C093880015C08091B00080688093B0006A
:101A6000C093B3000DC08091B00080628093B0003D
:101A7000C093B40005C0C038D1050CF0B5CFAFCFCE
:101A8000DF91CF911F9108958F929F92AF92BF9255
:101A9000CF92DF92EF92FF926B017C010E94950E34
:101AA0004B015C01C114D104E104F104F1F00E9486
:101AB000950EDC01CB0188199909AA09BB09883E5A
:101AC0009340A105B10570F321E0C21AD108E108E5
:101AD000F10888EE880E83E0981EA11CB11CC11489
:101AE000D104E104F10419F7DDCFFF90EF90DF900E
:101AF000CF90BF90AF909F908F9008950F931F93BA
:101B0000CF93DF9300D000D000D0CDB7DEB78C01EB
:101B1000CE0101960E94890968E2CE0101960E94D9
:101B20002B0FB801CE0101960E94010A69E2CE0195
:101B300001960E942B0F4D815E8169817A8187E831
:101B400094E00E94BF0D87E892E00E94FF09C8015F
:101B50000E94EA0962E070E080E090E00E94440D9B
:101B6000CE0101960E94860F26960FB6F894DEBF2E
:101B70000FBECDBFDF91CF911F910F910895CF92EE
:101B8000DF92EF92FF920F931F93CF93DF936C013D
:101B90007A018B01C0E0D0E0CE15DF0581F0D801DD
:101BA0006D918D01D601ED91FC910190F081E02DB8
:101BB000C6010995892B11F02196EECF7E01C70150
:101BC000DF91CF911F910F91FF90EF90DF90CF9019
:101BD0000895FC01538D448D252F30E0842F90E033
:101BE000821B930B541710F0CF9608950197089518
:101BF000FC01918D828D981761F0828DDF01A80F15
:101C0000B11D5D968C91928D9F5F9F73928F90E036
:101C100008958FEF9FEF0895FC01918D828D9817A5
:101C200031F0828DE80FF11D858D90E008958FEFE2
:101C30009FEF08950E94D71780EC93E00E948D00DB
:101C400021E0892B09F420E0822F0895EF92FF9282
:101C50000F931F93CF93DF93EC0181E0888F9B8DCF
:101C60008C8D981305C0E889F989808185FD26C08F
:101C7000F62E0B8D10E00F5F1F4F0F731127E02E14
:101C80008C8DE8120CC00FB607FCFACFE889F989F1
:101C9000808185FFF5CFCE010E943602F1CF8B8D7A
:101CA000FE01E80FF11DE35AFF4FF0829FB7F89451
:101CB0000B8FEA89FB89808180620AC09FB7F89404
:101CC000EE89FF896083E889F98980818370806467
:101CD00080839FBF81E090E0DF91CF911F910F91B2
:101CE000FF90EF900895CF93DF93EC01888D8823C8
:101CF000C9F0EA89FB89808185FD05C0A889B98979
:101D00008C9186FD0FC00FB607FCF5CF808185FF53
:101D1000F2CFA889B9898C9185FFEDCFCE010E94C1
:101D20003602E7CFDF91CF9108953FB7F8948091C5
:101D3000FA049091FB04A091FC04B091FD0426B537
:101D4000A89B05C02F3F19F00196A11DB11D3FBFF3
:101D5000BA2FA92F982F8827820F911DA11DB11D81
:101D6000BC01CD0142E0660F771F881F991F4A957D
:101D7000D1F708951F920F920FB60F9211242F934F
:101D80003F938F939F93AF93BF938091BC039091A8
:101D9000BD03A091BE03B091BF033091F90423E0CD
:101DA000230F2D3720F40196A11DB11D05C026E893
:101DB000230F0296A11DB11D2093F9048093BC034B
:101DC0009093BD03A093BE03B093BF038091FA0428
:101DD0009091FB04A091FC04B091FD040196A11D1B
:101DE000B11D8093FA049093FB04A093FC04B0937C
:101DF000FD04BF91AF919F918F913F912F910F90D3
:101E00000FBE0F901F9018950F931F93CF93DF93E2
:101E1000EC0188819981009729F02A813B8126175E
:101E2000370788F48B016F5F7F4F0E94111700976F
:101E300061F0998388831B830A832C813D81232B46
:101E400011F4FC01108281E001C080E0DF91CF91AC
:101E50001F910F910895EF92FF920F931F93CF93CD
:101E6000DF9300D0CDB7DEB78C0169831A82FC0105
:101E7000E480F580FFEFEF1AFF0AB7010E94040F1C
:101E8000882381F0F8012081318184819581BE0110
:101E90006F5F7F4F820F931F0E94E517F801F58255
:101EA000E48281E00F900F90DF91CF911F910F910D
:101EB000FF90EF900895EF92FF920F931F93CF93AF
:101EC000DF93EC017B018A01BA010E94040F288193
:101ED000398181110DC02115310519F0C9010E9408
:101EE0008816198218821D821C821B821A8206C0E3
:101EF0001D830C83B701C9010E94E517CE01DF9154
:101F0000CF911F910F91FF90EF900895FC01808178
:101F100091810C9488161F920F920FB60F92112484
:101F20002F933F934F935F936F937F938F939F93E1
:101F3000AF93BF93EF93FF9380EC93E00E94360240
:101F4000FF91EF91BF91AF919F918F917F916F9191
:101F50005F914F913F912F910F900FBE0F901F9067
:101F600018951F920F920FB60F9211242F938F93F3
:101F70009F93EF93FF93E091D003F091D103808181
:101F8000E091D603F091D70382FD12C09081809139
:101F9000D9038F5F8F732091DA03821751F0E0919C
:101FA000D903F0E0E054FC4F958F8093D90301C032
:101FB0008081FF91EF919F918F912F910F900FBE94
:101FC0000F901F90189589E694E00E94860F8FE687
:101FD00094E00E94860F85E794E00E94860F8BE7CD
:101FE00094E00E94860F81E894E00E94860F84E3CB
:101FF00091E090938804809387048091EA04909103
:10200000EB048758944071F4E0919A04F0919B049A
:10201000908180919C048095892380831092EB04A9
:102020001092EA0486EA94E00E94430981EC94E06D
:102030000C944309CF92DF92EF92FF921092C30368
:102040001092C20398EEC92E93E0D92EE12CF12C08
:10205000C092C403D092C503E092C603F092C703B6
:1020600080E191E09093C1038093C00385EC90E000
:102070009093CD038093CC0384EC90E09093CF03B6
:102080008093CE0380EC90E09093D1038093D003B3
:1020900081EC90E09093D3038093D20382EC90E0A4
:1020A0009093D5038093D40386EC90E09093D7036C
:1020B0008093D6031092D9031092DA031092DB03B7
:1020C0001092DC031092600410925F04C0926104CD
:1020D000D0926204E0926304F092640482E291E0A0
:1020E00090935E0480935D0481EC94E00E94F30879
:1020F00086EA94E00E94F30810928A041092890400
:10210000C0928B04D0928C04E0928D04F0928E04E5
:1021100084E391E0909388048093870410929E0456
:1021200010929D041092A00410929F041092A20499
:102130001092A1041092A4041092A3046091A5042B
:102140006E7F6D7F6093A5046695617081E068275E
:1021500083E00E947A0C61E083E00E94A90CE1EB2D
:10216000F0E0E491E0939704EDE9F0E0E491F0E031
:10217000EE0FFF1FE057FF4F8591949190939904C4
:102180008093980460E082E00E94A90C8091A504ED
:1021900081FD04C061E082E00E947A0C82E08093BD
:1021A0009304E0EBF0E0E491E0939404ECE9F0E0D8
:1021B000E491F0E0EE0FFF1FEA57FF4F85919491F5
:1021C000909396048093950481E894E00E94890995
:1021D0008BE794E00E94890985E794E00E948909D1
:1021E0008FE694E00E94890989E694E0FF90EF90E1
:1021F000DF90CF900C948909789484B5826084BD77
:1022000084B5816084BD85B5826085BD85B58160FA
:1022100085BD80916E00816080936E001092810078
:102220008091810082608093810080918100816033
:1022300080938100809180008160809380008091F4
:10224000B10084608093B1008091B0008160809380
:10225000B00080917A00846080937A0080917A0047
:10226000826080937A0080917A00816080937A0006
:1022700080917A00806880937A001092C10061E0BA
:102280008AE00E94A90C61E08BE00E94A90C61E049
:1022900088E00E94A90C61E089E00E94A90C61E03D
:1022A0008CE00E94A90C61E08DE00E94A90C60E026
:1022B00087E00E94A90C60E084E00E94A90C61E024
:1022C00085E00E94A90C61E085E00E947A0CE09113
:1022D000D003F091D10382E08083E091CC03F091B0
:1022E000CD031082E091CE03F091CF0380E1808393
:1022F0001092D803E091D403F091D50386E0808357
:10230000E091D203F091D303808180618083E091DA
:10231000D203F091D303808188608083E091D2035F
:10232000F091D303808180688083E091D203F091A3
:10233000D30380818F7D80831092A2041092A10428
:102340001092A00410929F0410929E0410929D047B
:102350008DE991E09093A4048093A3049091930459
:10236000963108F058C02DEB30E030939E04209356
:102370009D042BE931E03093A00420939F042CE2CC
:1023800031E03093A2042093A1044091680098307A
:1023900058F031E09E3008F430E021E0822F01C097
:1023A000880F3A95EAF701C084E0842B8093680097
:1023B000983038F09E3040F0963148F020E030E020
:1023C00008C02DE630E005C02BE630E002C02CE668
:1023D00030E030939B0420939A04983030F481E0ED
:1023E00001C0880F9A95EAF70EC0292F30E09E3081
:1023F00018F42850310902C02E50310981E001C083
:10240000880F2A95EAF780939C048091A304909109
:10241000A4040197F1F78091A1049091A204892B63
:1024200049F1E091EA04F091EB0484E0E738F80721
:1024300009F1309739F0A389B4899C9185898095F9
:1024400089238C938091A5048E7F8093A50410929C
:10245000E9041092E80487E894E09093EB048093F9
:10246000EA04E0919A04F0919B04908180919C048D
:10247000892B80831092F6041092F5041092F404D4
:102480001092F3041092F20411E01093F1041092F0
:10249000F00461E082E10E947A0C61E083E10E9435
:1024A0007A0C8091B9008E7F8093B9008091B90039
:1024B0008D7F8093B90088E48093B80085E4809391
:1024C000BC008EED90E09093EF048093EE048FEDCE
:1024D00090E09093ED048093EC0482E38093BA0043
:1024E00089E097E09093F8048093F70488EE93E0F6
:1024F000A0E0B0E08093CD049093CE04A093CF04ED
:10250000B093D004CFEFDFEFD093D604C093D504BF
:10251000D093D804C093D7041093D90488E997E0E6
:102520009093DB048093DA0481EC94E00E94A20B88
:1025300085E090E0A0E0B0E08093B2049093B30413
:10254000A093B404B093B504D093BB04C093BA0471
:10255000D093BD04C093BC041093BE048BE794E0F9
:102560009093C0048093BF0486EA94E00E94A20B7B
:102570000E947E0B892BF1F08FE992E00E94700B94
:1025800080EB92E00E94700B65E28FE30E940004F2
:1025900085E492E00E94700B6EE58FE30E940004D8
:1025A00089E692E00E94700B60ED77E080E090E0B9
:1025B0000E94440D86EA94E00E94960981EC94E022
:1025C0000E9496090E949900F5CF0E94271308F4F3
:1025D00081E00895E89409C097FB3EF490958095BA
:1025E000709561957F4F8F4F9F4F9923A9F0F92FD9
:1025F00096E9BB279395F695879577956795B79557
:10260000F111F8CFFAF4BB0F11F460FF1BC06F5F3C
:102610007F4F8F4F9F4F16C0882311F096E911C04E
:10262000772321F09EE8872F762F05C0662371F06F
:1026300096E8862F70E060E02AF09A95660F771F83
:10264000881FDAF7880F9695879597F90895990F5F
:102650000008550FAA0BE0E8FEEF16161706E8076C
:10266000F907C0F012161306E407F50798F0621B8D
:10267000730B840B950B39F40A2661F0232B242B62
:10268000252B21F408950A2609F4A140A6958FEF81
:10269000811D811D08950E945E130C94CF130E942A
:1026A000C11338F00E94C81320F0952311F00C9448
:1026B000B8130C94BE1311240C9403140E94E0135D
:1026C00070F3959FC1F3950F50E0551F629FF00185
:1026D000729FBB27F00DB11D639FAA27F00DB11D9E
:1026E000AA1F649F6627B00DA11D661F829F222727
:1026F000B00DA11D621F739FB00DA11D621F839FAE
:10270000A00D611D221F749F3327A00D611D231F83
:10271000849F600D211D822F762F6A2F11249F57D1
:1027200050409AF0F1F088234AF0EE0FFF1FBB1FD4
:10273000661F771F881F91505040A9F79E3F510593
:1027400080F00C94B8130C9403145F3FE4F3983EAC
:10275000D4F3869577956795B795F795E7959F5F3D
:10276000C1F7FE2B880F911D9695879597F90895CF
:1027700097F99F6780E870E060E008959FEF80EC34
:10278000089500240A9416161706180609060895D7
:1027900000240A9412161306140605060895092E3D
:1027A0000394000C11F4882352F0BB0F40F4BF2BAC
:1027B00011F460FF04C06F5F7F4F8F4F9F4F0895EC
:1027C00057FD9058440F551F59F05F3F71F04795E2
:1027D000880F97FB991F61F09F3F79F087950895C7
:1027E000121613061406551FF2CF4695F1DF08C0E6
:1027F000161617061806991FF1CF86957105610503
:1028000008940895E894BB2766277727CB0197F9AA
:102810000895052E97FB1EF400940E94201457FD86
:1028200007D00E94721407FC03D04EF40C942014BD
:1028300050954095309521953F4F4F4F5F4F0895EC
:1028400090958095709561957F4F8F4F9F4F08951C
:102850000E949414A59F900DB49F900DA49F800D8D
:10286000911D11240895B7FF0C9428140E94281478
:10287000821B930B08952F923F924F925F926F921B
:102880007F928F929F92AF92BF92CF92DF92EF9200
:10289000FF920F931F93CF93DF93CDB7DEB7CA1B81
:1028A000DB0B0FB6F894DEBF0FBECDBF09942A88AC
:1028B000398848885F846E847D848C849B84AA8454
:1028C000B984C884DF80EE80FD800C811B81AA81E1
:1028D000B981CE0FD11D0FB6F894DEBF0FBECDBFAC
:1028E000ED010895A1E21A2EAA1BBB1BFD010DC02C
:1028F000AA1FBB1FEE1FFF1FA217B307E407F507B0
:1029000020F0A21BB30BE40BF50B661F771F881F8B
:10291000991F1A9469F760957095809590959B0121
:10292000AC01BD01CF010895A29FB001B39FC001CA
:10293000A39F700D811D1124911DB29F700D811DEB
:102940001124911D08955058BB27AA270E94BB143B
:102950000C94CF130E94C11338F00E94C81320F0CA
:1029600039F49F3F19F426F40C94BE130EF4E0954D
:10297000E7FB0C94B813E92F0E94E01358F3BA1741
:10298000620773078407950720F079F4A6F50C9485
:1029900002140EF4E0950B2EBA2FA02D0B01B901F5
:1029A00090010C01CA01A0011124FF27591B99F0C5
:1029B000593F50F4503E68F11A16F040A22F232FD1
:1029C000342F4427585FF3CF469537952795A79521
:1029D000F0405395C9F77EF41F16BA0B620B730BC8
:1029E000840BBAF09150A1F0FF0FBB1F661F771F39
:1029F000881FC2F70EC0BA0F621F731F841F48F4EE
:102A0000879577956795B795F7959E3F08F0B0CF76
:102A10009395880F08F09927EE0F9795879508955D
:102A20000E9424150C94CF130E94C81358F00E94E2
:102A3000C11340F029F45F3F29F00C94B8135111F1
:102A40000C9403140C94BE130E94E01368F39923B2
:102A5000B1F3552391F3951B550BBB27AA2762179A
:102A60007307840738F09F5F5F4F220F331F441FA7
:102A7000AA1FA9F335D00E2E3AF0E0E832D09150DB
:102A80005040E695001CCAF72BD0FE2F29D0660FC8
:102A9000771F881FBB1F261737074807AB07B0E80B
:102AA00009F0BB0B802DBF01FF2793585F4F3AF011
:102AB0009E3F510578F00C94B8130C9403145F3FBB
:102AC000E4F3983ED4F3869577956795B795F79597
:102AD0009F5FC9F7880F911D9695879597F908957F
:102AE000E1E0660F771F881FBB1F6217730784071B
:102AF000BA0720F0621B730B840BBA0BEE1F88F72A
:102B0000E09508950E9489156894B1110C940314FE
:102B100008950E94E81388F09F5798F0B92F9927DD
:102B2000B751B0F0E1F0660F771F881F991F1AF0B8
:102B3000BA95C9F714C0B13091F00E940214B1E007
:102B400008950C940214672F782F8827B85F39F006
:102B5000B93FCCF3869577956795B395D9F73EF451
:102B600090958095709561957F4F8F4F9F4F0895F9
:102B70000E94271308F48FEF08950E942713880BF3
:102B8000990B089597FB072E16F4009407D077FD54
:102B900009D00E94D61507FC05D03EF4909581958A
:102BA0009F4F0895709561957F4F0895AA1BBB1B99
:102BB00051E107C0AA1FBB1FA617B70710F0A61B3D
:102BC000B70B881F991F5A95A9F780959095BC015E
:102BD000CD010895EE0FFF1F0590F491E02D0994AB
:102BE0000F931F93CF93DF938230910510F482E00F
:102BF00090E0E0910005F091010520E030E0A0E0D8
:102C0000B0E0309719F1408151810281138148175A
:102C10005907C8F08417950769F4109731F0129698
:102C20000C93129713961C9327C0009300051093E2
:102C3000010522C02115310519F04217530718F478
:102C40009A01BD01EF01DF01F801DBCF211531054C
:102C5000F9F0281B390B2430310580F48A819B81DF
:102C60006115710521F0FB019383828304C0909369
:102C7000010580930005FE01329644C0FE01E20F7B
:102C8000F31F8193919322503109398328833AC0ED
:102C90002091FE043091FF04232B41F42091020186
:102CA000309103013093FF042093FE042091000132
:102CB000309101012115310541F42DB73EB7409106
:102CC000040150910501241B350BE091FE04F091A5
:102CD000FF04E217F307A0F42E1B3F0B2817390758
:102CE00078F0AC014E5F5F4F2417350748F04E0F68
:102CF0005F1F5093FF044093FE048193919302C0A1
:102D0000E0E0F0E0CF01DF91CF911F910F910895A6
:102D1000CF93DF93009709F481C0FC0132971382AF
:102D20001282A0910005B0910105109781F42081D5
:102D30003181820F931F2091FE043091FF042817E8
:102D4000390751F5F093FF04E093FE0467C0ED01ED
:102D500020E030E0CE17DF0740F44A815B819E011E
:102D600041155105F1F0EA01F5CFD383C2834081CB
:102D70005181840F951FC817D90759F4888199810B
:102D8000840F951F0296918380838A819B81938310
:102D900082832115310529F4F0930105E0930005A4
:102DA0003DC0E901FB83EA8349915991C40FD51FC6
:102DB000EC17FD0761F480819181840F951F0296C5
:102DC000E90199838883828193819B838A83E0E0F0
:102DD000F0E012968D919C911397009719F0FD01E8
:102DE000DC01F7CF8D919C9111979D012E5F3F4F94
:102DF000820F931F2091FE043091FF04281739079A
:102E000069F4309729F4109201051092000502C070
:102E100013821282B093FF04A093FE04DF91CF913E
:102E20000895A0E0B0E0E7E1F7E10C943F14EC0175
:102E3000009721F4CB010E94F015B4C0FC01E60F0D
:102E4000F71F9C0122503109E217F30708F4A8C0CC
:102E5000D9010D911C91119706171707B0F0053095
:102E6000110508F49BC0C80104978617970708F45A
:102E700095C002501109061B170B019311936D9316
:102E80007C93CF010E94881689C05B01A01AB10A09
:102E90004C01800E911EA0910005B0910105612C9E
:102EA000712CE12CF12C109709F446C08D919C9166
:102EB0001197A815B905B1F56C0142E0C40ED11CFB
:102EC000CA14DB0478F14C018A189B08640142E0C3
:102ED000C40ED11C1296BC9012971396AC91B5E01B
:102EE000CB16D10440F0B282A38391828082D901B3
:102EF0006D937C9309C00E5F1F4F800F911FF901E6
:102F000091838083EB2DFA2FE114F10431F0D70186
:102F10001396FC93EE93129741C0F0930105E09352
:102F200000053CC06816790608F43C017D01129644
:102F30000D90BC91A02DB7CF8091FE049091FF041D
:102F400088169906E1F466167706C8F480910001A8
:102F500090910101009741F48DB79EB74091040113
:102F600050910501841B950BE817F907C8F4F093FD
:102F7000FF04E093FE04F901718360830FC0CB016D
:102F80000E94F0157C01009759F0A801BE010E9433
:102F9000DC17CE010E948816C70104C0CE0102C012
:102FA00080E090E0CDB7DEB7EEE00C945B1481E0FA
:102FB00090E0F8940C94EC17FB01DC0102C0019046
:102FC0000D9241505040D8F70895FB01DC0101906B
:102FD0000D920020E1F7089510E0C2E6D0E004C0B1
:102FE000FE010E94EA152196C336D107C9F7F8946D
:022FF000FFCF11
:102FF20000000205800000000000A30000000000A5
:10300200260EBF0DE90D730E8D00F80D0C0E00009B
:10301200000062013501330209012D0119010A0183
:1030220000000000A901BF0D33020901F9011102DC
:10303200910153656E64696E67204D6F64756C65AE
:10304200205265717565737420547970653A200059
:103052000D0A004A6F79737469636B20436F6E7453
:10306200726F6C2072656365697665643A200058F8
:10307200202F20416E676C653A20002059202F20B6
:10308200596F72416D706C69747564653A20004CB9
:10309200656674204D6F746F72204D69783A200016
:1030A200205269676874204D6F746F72204D697881
:1030B2003A20004C656674204D6F746F7220506F19
:1030C2007765723A2000205269676874204D6F74E8
:1030D2006F7220506F7765723A2000526573706F7D
:1030E2006E652072656365766965643A20004E619B
:1030F2006D652072656365766965643A2000437286
:103102006561746F722072656365766965643A20E1
:1031120000537461747573207265636576696564C2
:103122003A20004E6F206E616D6520726563657690
:1031320069656421004E616D652072657175657304
:10314200746564004E6F2063726561746F722072E1
:1031520065636576696564210043726561746F72A7
:1031620020726571756573746564006E616E0069C5
:103172006E66006F76660053656E64656420426C0D
:103182007565746F6F746820446174613A20004DF4
:103192006F64756C652044657461637465642000B6
:1031A20052657175657374696E67204D6F64756CD5
:0831B2006520496E666F000004
:00000001FF
