:100000000C9463000C948B000C948B000C9485036F
:100010000C9485030C9485030C948B000C948B003A
:100020000C948B000C948B000C948B000C948B0024
:100030000C948B000C948B000C948B000C948B0014
:100040000C94AE0E0C948B000C94A50F0C947F0FA7
:100050000C948B000C948B000C948B000C948B00F4
:100060000C9457020C948B00000000002400270021
:100070002A0000000008000201000003040700003D
:1000800000000000000000000000230026002900FE
:1000900000000000250028002B00040404040404D0
:1000A0000404020202020202030303030303010227
:1000B00004081020408001020408102001020408F6
:1000C00010200E10D70F11241FBECFEFD8E0DEBFD7
:1000D000CDBF12E0A0E0B1E0EAEDFFE202C0059082
:1000E0000D92AC3DB107D9F725E0ACEDB2E001C00F
:1000F0001D92A731B207E1F710E0C2E6D0E004C0DC
:100100002197FE010E94DE15C136D107C9F70E9472
:10011000F0100C94E0170C940000FC01918D228DDE
:10012000892F90E0805C9F4F821B91098F739927E4
:10013000089580E090E0892B29F00E94100E811133
:100140000C9400000895DC015996ED91FC915A97AA
:10015000309709F00994089585ED8093BC00809153
:10016000BC0084FDFCCF10920705089540918A03DE
:10017000262F30E0240F311D21323105DCF420918F
:1001800007052430C9F4FC0180E090E0861758F49C
:1001900030918A032191DC01A659BC4FA30FB11DF8
:1001A0002C930196F3CF80918A03680F60938A03A2
:1001B00080E0089581E0089582E008950895CF9346
:1001C000DF93AC01E0910C05F0910D053097F1F053
:1001D00090910B0580910A059817C0F090E0292FA7
:1001E00030E02617370754F4D901A65BBC4FEA016B
:1001F000C20FD31F28812C939F5FF1CF10920B0564
:1002000060930A05CB01DF91CF910994DF91CF91E3
:1002100008950895E0910B0580910A05E81730F4E0
:10022000F0E0E65BFC4F808190E008958FEF9FEF58
:10023000089590910B0580910A05981750F4E92FC5
:10024000F0E0E65BFC4F208130E09F5F90930B0570
:1002500002C02FEF3FEFC901089580910A0590E099
:1002600020910B05821B91090895CF92DF92EF92A6
:10027000FF920F931F93CF93DF937C01CB018A01F1
:1002800020914903222389F0EB016B01C40ED51E96
:10029000CC15DD0569F06991D701ED91FC910190D4
:1002A000F081E02DC7010995F3CF642F0E94B600BD
:1002B000C801DF91CF911F910F91FF90EF90DF90D8
:1002C000CF900895CF93DF931F92CDB7DEB76983A8
:1002D000209149032223D1F020910805203240F0DB
:1002E00021E030E0FC013383228380E090E015C000
:1002F00080910905E82FF0E0E75DFC4F998190833C
:100300008F5F809309058093080505C061E0CE01E9
:1003100001960E94B60081E090E00F90DF91CF91AE
:1003200008952091FF04309100052817390771F4D2
:100330009091FD048091FE04981741F0E091FD0436
:10034000F0E0E751FD4F808190E008958FEF9FEF3F
:1003500008951F93CF93DF93DC015C968D919C9160
:100360005D97009739F421E030E013963C932E938B
:1003700012973BC05196ED91FC91529750962C915B
:100380005097322F30951FB75E964C915E97742F21
:10039000727041FD6095F8944081772311F0422BF3
:1003A00001C043234083EC012197F1F748E05081DD
:1003B00060FF02C0522B01C053235083EC012197F0
:1003C000F1F76695415099F78081772319F08323DF
:1003D000808302C0282B20831FBF5C968D919C9147
:1003E0005D970197F1F781E090E0DF91CF911F9148
:1003F00008952091FF04309100052817390771F402
:100400008091FE042091FD0490E0805C9F4F821B50
:10041000910960E470E00E94B615089580E090E0D4
:1004200008952091FF043091000528173907B9F489
:100430009091FD048091FE04981789F0E091FD04ED
:10044000F0E0E751FD4F80812091FD0430E02F5F07
:100450003F4F2F7333272093FD0490E008958FEFD3
:100460009FEF089580E090E00895FC01848DDF0106
:10047000A80FB11DA35ABF4F2C91848D90E0019617
:100480008F739927848FA689B7892C93A089B18906
:100490008C91837080648C93938D848D981306C0A7
:1004A0000288F389E02D80818F7D808308951F92DB
:1004B0000F920FB60F9211242F933F934F935F9398
:1004C0006F937F938F939F93AF93BF93EF93FF931C
:1004D0008091B900887F803609F49CC068F5883225
:1004E00009F45BC090F4803109F454C038F48823D7
:1004F00009F4F6C0883009F44DC0F6C0883109F41B
:100500004CC0803209F45DC0EFC0803409F468C08B
:1005100048F4803309F455C0883309F0E5C080936E
:10052000AD03D8C0803509F44FC0883509F45DC0EB
:10053000883409F0D9C0D6C0883909F4C7C0A8F4F6
:10054000883709F467C038F4883609F463C0803707
:1005500009F460C0C9C0883809F4B8C0803909F40A
:100560005FC0803809F0C0C05BC0803B09F486C022
:1005700038F4803A09F466C0883A09F47FC0B4C000
:10058000803C09F4A7C0883C09F4A4C0883B09F466
:100590008AC0AAC08091D00310C09091CF038091EF
:1005A000CE03981770F5E091CF0381E08E0F809312
:1005B000CF03F0E0E255FC4F80818093BB0085ECD7
:1005C00086C08093AD038EC0E091CF0381E08E0F93
:1005D0008093CF038091BB00F0E0E255FC4F808315
:1005E0009091CF038091CE036EC0E091CF0381E064
:1005F0008E0F8093CF038091BB00F0E0E255FC4F5B
:1006000080838091060581116DC081E0809305058E
:1006100084EA61C083E0809307051092AC03CFCFDA
:100620008091AC03803208F051C0E091AC0381E0CE
:100630008E0F8093AC038091BB00F0E0E457FC4F39
:100640008083BDCF85EC8093BC001092070580911C
:10065000AC03803230F4E091AC03F0E0E457FC4F9F
:1006600010826091AC0370E0E0910105F091020509
:100670008CE893E009951092AC0336C084E0809337
:10068000070510928B0310928A03E0910305F09105
:100690000405099580918A03811105C081E080934A
:1006A0008A0310926A03E0918B0381E08E0F80939E
:1006B0008B03F0E0E659FC4F80818093BB00909162
:1006C0008B0380918A03981708F479CF85E880938B
:1006D000BC000AC085EC8093BC001092070504C0E2
:1006E0001092AD030E94AC00FF91EF91BF91AF91CA
:1006F0009F918F917F916F915F914F913F912F913A
:100700000F900FBE0F901F9018951F920F920FB66B
:100710000F9211242F933F934F935F936F937F9387
:100720008F939F93AF93BF93EF93FF93E091FF0459
:10073000F0910005309709F451C0968DA685B785D4
:10074000858591FF04C09C91892329F447C09C9121
:10075000892309F043C0A389B4899C918589809538
:1007600089238C93868997890197F1F7608D718D24
:10077000A685B785558538E020E0CB010197F1F7D4
:10078000822F90E095958795282F4C91452309F06D
:100790002068315091F7868D81FD20958091FE046F
:1007A00090E001968F7399273091FD04381749F036
:1007B000A091FE04B0E0A751BD4F2C938093FE049E
:1007C00003C0868D8160868F828D938D0197F1F7AE
:1007D000A389B4899C918589892B8C93FF91EF9192
:1007E000BF91AF919F918F917F916F915F914F9149
:1007F0003F912F910F900FBE0F901F901895CF93A0
:10080000DF93D82FC62F81E0809349038AE280933B
:10081000E50210920905109208056D2F82E794E019
:100820000E9462016C2F82E794E00E946201909125
:100830000805913208F044C0809107058111FCCF72
:1008400082E08093070581E0809306058FEF809317
:10085000AD031092CF039093CE03A9E2B3E0EEEA8A
:10086000F3E080E0981721F02D9121938F5FFACF6C
:100870001092D0038091D00384658093D00380913F
:100880000505813061F4109205058091D0038093B5
:10089000BB008091BC0083FDF8CF85EC01C085EEE4
:1008A0008093BC00809107058230E1F38091AD0315
:1008B0008F3F31F08091AD03803211F08091AD0314
:1008C00010920905109208051092490382E491E004
:1008D0000E94F2098D2F0E94250A8BEA92E00E9465
:1008E000F2098C2F0E94250A80E691E0DF91CF91DA
:1008F0000C94CB094F925F926F927F928F929F924E
:10090000AF92BF92CF92DF92EF92FF920F931F931D
:10091000CF93DF93CDB7DEB728970FB6F894DEBF3D
:100920000FBECDBF8CE994E00E94F901892B09F438
:1009300054C262E070E080E090E00E94370D8CE9E4
:1009400094E00E9411028093DC028B3709F03FC2D1
:100950002DED32E03A832983CC24C394D12C8CE949
:1009600094E00E94F901892BE9F061E070E080E0F9
:1009700090E00E94370D8CE994E00E941102A98159
:10098000BA818D93BA83A983BFEFCB1ADB0AEAE061
:10099000CE16D10429F483E691E00E94630B02C0D5
:1009A0008D37E9F62CED32E03A832983C601845273
:1009B0009D4F7C01A981BA818D91BA83A9830E9440
:1009C000250AE981FA81EE16FF06A1F781E691E09A
:1009D0000E94F2098091DD02863209F0D6C1F9E069
:1009E000CF16D10409F0F9C18091DE02082E000C67
:1009F000990BC09754E6589F9001599F300D1124D0
:100A00003A8329838091DF02082E000C990BC0974E
:100A10004AE0489F9001499F300D112489819A81B5
:100A2000820F931F9A8389838091E002082E000C25
:100A3000990BC097A981BA81A80FB91FBA83A9835E
:100A40008091E102082E000C990BC097589F70010D
:100A5000599FF00C11248091E202082E000C990B92
:100A6000C097489F9001499F300D1124E20EF31E5C
:100A70008091E302082E000C990BC097E80EF91E36
:100A800087E791E00E94F20983E991E00E94F20970
:100A9000E981FA814F01FF0FAA08BB08C501B40123
:100AA0000E94390B8FE991E00E94F20927010F2C77
:100AB000000C66087708C301B2010E94390B80E67A
:100AC00091E00E94CB0929813A81293681E03807DB
:100AD00008F05BC19FEFE916F10411F008F055C171
:100AE000C9010B97803A910508F041C061E088E0A8
:100AF0000E946D0C60E089E00E946D0C61E08CE06A
:100B00000E946D0C60E08DE00E946D0CA981BA819D
:100B1000AA35B105C4F0A1E0BFEFA50194012A55A3
:100B20003109410951090E942A1420E530E040E0D2
:100B300050E00E94FD131FEF120FE981FA81EB359F
:100B4000F105A4F401C01FEFAFEFB0E0A5019401DF
:100B50002B503109410951090E941C142FE430E047
:100B600040E050E00E94FD13022F01C00FEF898189
:100B70009A818E5B9109813A910508F041C060E04D
:100B800088E00E946D0C61E089E00E946D0C60E0DD
:100B90008CE00E946D0C61E08DE00E946D0C29815B
:100BA0003A812F303140BCF4AFEFB0E0A5019401A1
:100BB0002E503140410951090E941C1421E530E0BA
:100BC00040E050E00E94FD13122FA981BA81AE309F
:100BD000B140ACF001C01FEFA50194012D5B3109BC
:100BE00041095109A1E0BFEF0E942A1421E530E03C
:100BF00040E050E00E94FD130FEF020F01C00FEF25
:100C000089819A818B5A9109439798F460E088E032
:100C10000E946D0C61E089E00E946D0C61E08CE047
:100C20000E946D0C60E08DE00E946D0C0FEF1FEFD5
:100C300018C029813A812B30310598F461E088E0B1
:100C40000E946D0C60E089E00E946D0C60E08CE019
:100C50000E946D0C61E08DE00E946D0C0FEF1FEFA4
:100C600006C089819A818F559140099738F383EBAB
:100C700091E00E94F209812F90E0A0E0B0E08D8326
:100C80009E83AF83B8874AE0BC01CD010E942A0A47
:100C900084EC91E00E94F209802E912CA12CB12CC1
:100CA0004AE0C501B4010E942A0A80E691E00E9450
:100CB000CB09C301B2010E94E01269837A838B835E
:100CC0009C836D817E818F8198850E94DE122981AF
:100CD0003A814B815C810E943F1320E030E04FE776
:100CE00053E40E9404152B013C01C501B4010E948C
:100CF000DE1229813A814B815C810E943F1320E002
:100D000030E04FE753E40E9404154B015C0187ED8E
:100D100091E00E94F20942E0C301B2010E946B0A15
:100D20008AEE91E00E94F20942E0C501B4010E94FE
:100D30006B0A80E691E00E94CB0920E030E040E2BF
:100D400051E4C301B2010E94D91287FF03C0412CB4
:100D5000512C320120E030E040E251E4C501B40101
:100D60000E94D91287FF03C0812C912C5401C3012A
:100D7000B2010E9476158AE00E94D80CC501B40128
:100D80000E9476158BE00E94D80C8091DD028034A1
:100D900021F594E0C916D10401F56091DE02289690
:100DA0000FB6F894DEBF0FBECDBFDF91CF911F917C
:100DB0000F91FF90EF90DF90CF90BF90AF909F90FA
:100DC0008F907F906F905F904F900C94FF030E94E4
:100DD000250ACC24C394D12CF9CD28960FB6F894CB
:100DE000DEBF0FBECDBFDF91CF911F910F91FF905E
:100DF000EF90DF90CF90BF90AF909F908F907F90BB
:100E00006F905F904F9008951F93CF93DF9300D022
:100E100000D000D0CDB7DEB7CE0101960E947C098C
:100E200090910A0580910B05981701F182E794E0F3
:100E30000E941901182F8FEF91E00E94F209812F73
:100E40000E94250A80E691E00E94CB0990910A0554
:100E500080910B05981751F082E794E00E941901E8
:100E6000682FCE0101960E941F0FF0CF1532B9F006
:100E70001E3541F11432C1F5BE016F5F7F4F8AE824
:100E800094E00E94F20B85E392E00E94F2098AE866
:100E900094E00E94DD0981E08093E60225C0BE0156
:100EA0006F5F7F4F84E894E00E94F20B82E192E052
:100EB0000E94F20984E894E00E94DD0981E08093B9
:100EC000E80212C0BE016F5F7F4F8EE794E00E9480
:100ED000F20B82E292E00E94F2098EE794E00E9417
:100EE000DD0981E08093E70290910A0580910B056E
:100EF000981759F082E794E00E941901BC01990FFC
:100F0000880B990B0E94390BEFCFCE0101960E94FE
:100F10007A0F26960FB6F894DEBF0FBECDBFDF91D5
:100F2000CF911F910895CF93DF93CDB7DEB72C9764
:100F30000FB6F894DEBF0FBECDBF0E94710B892B98
:100F4000D1F5CE0101960E947C09CE0107960E9440
:100F50004C0CBE01695F7F4FCE0101960E94130CBD
:100F6000CE0107960E947A0F64E2CE0101960E949C
:100F70001F0F6FE6CE0101960E941F0F18861F8279
:100F80001A8619861C861B86BE016F5F7F4FCE01B5
:100F900007960E94F20BCE0107960E94710DCE01BA
:100FA00007960E947A0FCE0101960E94DD09CE01BC
:100FB00001960E947A0F0E94710B892B91F180910A
:100FC000880490918904892B39F0E0918404F09190
:100FD0008504808181110CC087E492E00E94630B3C
:100FE00065E28FE30E94FF0389E592E00E94630BB4
:100FF0008091820490918304892B39F0E0917E04E2
:10100000F0917F04808181110CC088E692E00E94FB
:10101000630B6EE58FE30E94FF038DE792E00E9471
:10102000630B8091E802882379F1CE0101960E943A
:101030007C0963E2CE0101960E941F0F65E2CE019A
:1010400001960E941F0F64E874E0CE0101960E9491
:10105000F40918861F821A8619861C861B86BE0113
:101060006F5F7F4FCE0107960E94F20BCE0107966D
:101070000E94710DCE0107960E947A0F1092E8022D
:10108000CE0101960E947A0F8091E702882379F1C0
:10109000CE0101960E947C0963E2CE0101960E9476
:1010A0001F0F6EE5CE0101960E941F0F6EE774E0E0
:1010B000CE0101960E94F40918861F821A861986AD
:1010C0001C861B86BE016F5F7F4FCE0107960E9474
:1010D000F20BCE0107960E94710DCE0107960E9479
:1010E0007A0F1092E702CE0101960E947A0F80914A
:1010F000E6028823C9F1CE0101960E947C09CE0147
:1011000007960E944C0CBE01695F7F4FCE0101968D
:101110000E94130CCE0107960E947A0F64E2CE0162
:1011200001960E941F0F6AE874E0CE0101960E94AA
:10113000F40918861F821A8619861C861B86BE0132
:101140006F5F7F4FCE0107960E94F20BCE0107968C
:101150000E94710DCE0107960E947A0F1092E6024E
:10116000CE0101960E947A0F2C960FB6F894DEBF3E
:101170000FBECDBFDF91CF910895833081F028F469
:10118000813099F08230A1F008958730A9F088303D
:10119000B9F08430D1F4809180008F7D03C08091BC
:1011A00080008F7780938000089584B58F7702C088
:1011B00084B58F7D84BD08958091B0008F7703C082
:1011C0008091B0008F7D8093B0000895CF93DF931E
:1011D000EC018AE091E0998388831A821B821C8249
:1011E0001D821E821F82188619861C861D861E86F9
:1011F0001F86188A198A1A8A1B8A8FEF9FEF9D8B88
:101200008C8B1A861B86188E1A8E198E8091F50487
:1012100081110BC01092F4041092F3041092F204A6
:101220001092F10481E08093F50484E090E00E9444
:10123000E415FC0111821082D383C283E091F30490
:10124000F091F404309749F49093F4048093F304FC
:101250009093F2048093F10406C09183808390936D
:10126000F4048093F304DF91CF9108952AE031E0F4
:10127000FC01318320832091F50421110BC01092D1
:10128000F4041092F3041092F2041092F10421E09D
:101290002093F5042091F1043091F204F901A0E0CB
:1012A000B0E0309741F14281538184179507F1F402
:1012B000109729F08081918111969C938E93809153
:1012C000F3049091F404E817F90721F4B093F404BF
:1012D000A093F3042E173F0731F4808191819093FE
:1012E000F2048093F104CF010C947C16DF0101908D
:1012F000F081E02DD6CF0895FC0111821082138277
:1013000012821582148240E050E062E671E00C9493
:101310004F0FCF93DF93FC0182858823C9F12FB74C
:10132000F8948091D1039091D203A091D303B0910E
:10133000D4032FBF86839783A087B187208D222374
:1013400039F14089518962897389841B950BA60BF9
:10135000B70B448555856685778584179507A6075D
:10136000B707B0F084899589009719F4128613861F
:101370000FC0EF010197958B848BCF010E94A300D2
:101380008E819F81A885B985888B998BAA8BBB8B11
:10139000DF91CF910895009769F0FC010190002042
:1013A000E9F73197AF01481B590BBC0185ED93E07C
:1013B0000C94B30D80E090E00895CF93DF93FC018F
:1013C000448155816081718185ED93E00E94B30D68
:1013D000EC0180E691E00E94CB098C0F9D1FDF910C
:1013E000CF9108950C94CB09EF92FF920F931F9326
:1013F000CF93DF93FB0104811581E080F180E1143C
:10140000F10411F480E01AC001151105B1F0EC01EE
:101410008C819D81080F191FB801CE010E94F80E22
:10142000882381F3288139818C819D81B701820FC6
:10143000931F0E94D9171D830C8381E0DF91CF9108
:101440001F910F91FF90EF900895682F85ED93E025
:101450000C941A0E8F929F92AF92BF920F931F938C
:10146000CF93DF93CDB7DEB7A1970FB6F894DEBF69
:101470000FBECDBF19A2423008F44AE08E010F5DC5
:101480001F4F842E912CA12CB12CA50194010E94F8
:101490006614E62FB901CA0101501109EA3014F4AB
:1014A000E05D01C0E95CD801EC93232B242B252BB4
:1014B00061F7C8010E94CB09A1960FB6F894DEBF70
:1014C0000FBECDBFDF91CF911F910F91BF90AF9015
:1014D0009F908F9008958F929F92AF92BF92CF92DC
:1014E000DF92EF92FF920F931F93CF93DF936B01E5
:1014F0007C01142F9B01AC010E94B115882319F0C7
:101500008FE892E027C046015701E894B7F82FEF23
:101510003FEF4FE75FE7C501B4010E94B1158111AC
:101520000DC02FEF3FEF4FE75FE7C501B4010E9409
:10153000D91218161CF483E992E00CC02FEF3FEF8C
:101540004FE75FE4C701B6010E94AC15181684F49A
:1015500087E992E0DF91CF911F910F91FF90EF907B
:10156000DF90CF90BF90AF909F908F900C94CB095D
:101570002FEF3FEF4FE75FECC701B6010E94D91292
:1015800087FDE6CF20E030E0A901C701B6010E9447
:10159000D91287FF09C08DE20E94250AEC01F7FAF3
:1015A000F094F7F8F09402C0C0E0D0E000E060E012
:1015B00070E080E09FE3101741F020E030E040E26F
:1015C00051E40E9404150F5FF6CFA70196010E9417
:1015D00098146B017C010E947D154B015C014AE06F
:1015E0000E942A0AC80FD91F1123A9F1C501B4010D
:1015F0000E94DE129B01AC01C701B6010E94971444
:101600006B017C018EE20E94250AC80FD91F20E0E1
:1016100030E040E251E4C701B6010E943F134B01A4
:101620005C010E947D156B01E12CF12C4AE0C701A1
:10163000B6010E942A0AC80FD91FC701B6010E942D
:10164000DE129B01AC01C501B4010E9497146B012D
:101650007C011150E1F6CE01DF91CF911F910F91E6
:10166000FF90EF90DF90CF90BF90AF909F908F90C2
:101670000895CF92DF92EF92FF92CF93DF9397FF7F
:1016800019C06B017C018DE20E94250AEC016627DE
:101690007727CB016C197D098E099F094AE00E94CA
:1016A0002A0A8C0F9D1FDF91CF91FF90EF90DF9062
:1016B000CF9008954AE0DF91CF91FF90EF90DF90B7
:1016C000CF900C942A0ACF93DF930E94CB09EC01B0
:1016D00080E691E00E94CB098C0F9D1FDF91CF9196
:1016E0000895CF93DF93E9E7F0E08491E5EBF0E034
:1016F000D491E1EAF0E0C491CC2391F081110E94F1
:10170000BD08EC2FF0E0EE0FFF1FEA57FF4FA59149
:10171000B491EC91ED2381E090E021F480E002C0EF
:1017200080E090E0DF91CF910895FC0183852FB791
:101730008823D1F1F8948091D1039091D203A091A4
:10174000D303B091D4032FBF26813781821B930B23
:101750002FB7F8944091D1035091D2036091D303F5
:101760007091D4032FBF4683578360877187092EFA
:10177000000CAA0BBB0B4281538164817581480F19
:10178000591F6A1F7B1F428353836483758340897B
:10179000518962897389840F951FA61FB71F808B9B
:1017A000918BA28BB38B1AC0F8948091D103909146
:1017B000D203A091D303B091D4032FBF828393832C
:1017C000A483B58386839783A087B187808B918B11
:1017D000A28BB38B86899789958B848B81E08287D6
:1017E00013860895CF93DF93EC01FB0186179707CB
:1017F000B1F0608171816115710529F044815581D5
:101800000E944F0F0CC088819981009711F00E94AF
:101810007C16198218821D821C821B821A82CE01BC
:10182000DF91CF9108950F931F93CF93DF938C0196
:10183000EB01FC01808191810097B1F06881798191
:101840006115710579F0428153812C813D814217E8
:10185000530740F00E94D9178C819D81F801958330
:10186000848313C00E947C1688819981F80191833A
:1018700080838A819B81938382838C819D819583E0
:101880008483198218821B821A821D821C82DF9136
:10189000CF911F910F910895CF93DF9300D0CDB7D3
:1018A000DEB7FC011182108213821282158214822B
:1018B00023E229831A82BE016F5F7F4FFB010190F3
:1018C0000020E9F73197AF01461B570B0E944F0FDD
:1018D0000F900F90DF91CF9108951F93CF93DF93D7
:1018E000282F30E0F901EE58FF4F8491F901E255BD
:1018F000FF4FD491F901E656FF4FC491CC23C1F0BC
:10190000162F81110E94BD08EC2FF0E0EE0FFF1F93
:10191000E057FF4FA591B4919FB7F894111104C0FF
:101920008C91D095D82302C0EC91DE2BDC939FBF25
:10193000DF91CF911F910895CF93DF9390E0FC0149
:10194000E255FF4F2491FC01E656FF4F8491882316
:1019500061F190E0880F991FFC01E859FF4FC59194
:10196000D491FC01E057FF4FA591B491611109C0DA
:101970009FB7F8948881209582238883EC912E2349
:101980000BC0623061F49FB7F8948881322F309594
:1019900083238883EC912E2B2C939FBF06C08FB797
:1019A000F894E8812E2B28838FBFDF91CF91089583
:1019B0001F93CF93DF93182FEB0161E00E949C0CE3
:1019C000209711F460E004C0CF3FD10539F461E005
:1019D000812FDF91CF911F910C946D0CE12FF0E0DE
:1019E000EE58FF4FE491E330F9F048F4E130B9F0FC
:1019F000E230A1F584B5806284BDC8BD34C0E73053
:101A0000E9F0E83019F1E43049F580918000806216
:101A100080938000D0938B00C0938A0024C084B54B
:101A2000806884BDC7BD1FC080918000806880939E
:101A30008000D0938900C093880015C08091B000C9
:101A400080688093B000C093B3000DC08091B00057
:101A500080628093B000C093B40005C0C038D10547
:101A60000CF0B5CFAFCFDF91CF911F9108958F923A
:101A70009F92AF92BF92CF92DF92EF92FF926B0153
:101A80007C010E94890E4B015C01C114D104E10468
:101A9000F104F1F00E94890EDC01CB01881999094B
:101AA000AA09BB09883E9340A105B10570F321E066
:101AB000C21AD108E108F10888EE880E83E0981E6A
:101AC000A11CB11CC114D104E104F10419F7DDCF4C
:101AD000FF90EF90DF90CF90BF90AF909F908F904E
:101AE00008950F931F93CF93DF9300D000D000D0C1
:101AF000CDB7DEB78C01CE0101960E947C0968E269
:101B0000CE0101960E941F0FB801CE0101960E94DE
:101B1000F40969E2CE0101960E941F0F4D815E819A
:101B200069817A818CE994E00E94B30D8BE992E09F
:101B30000E94F209C8010E94DD0962E070E080E0C5
:101B400090E00E94370DCE0101960E947A0F2696F2
:101B50000FB6F894DEBF0FBECDBFDF91CF911F91BE
:101B60000F9108950895CF92DF92EF92FF920F9315
:101B70001F93CF93DF936C017A018B01C0E0D0E01B
:101B8000CE15DF0581F0D8016D918D01D601ED9163
:101B9000FC910190F081E02DC6010995892B11F08F
:101BA0002196EECF7E01C701DF91CF911F910F915A
:101BB000FF90EF90DF90CF900895FC01538D448DFE
:101BC000252F30E0842F90E0821B930B541710F0E8
:101BD000CF96089501970895FC01918D828D9817F5
:101BE00061F0828DDF01A80FB11D5D968C91928D01
:101BF0009F5F9F73928F90E008958FEF9FEF0895FE
:101C0000FC01918D828D981731F0828DE80FF11DC6
:101C1000858D90E008958FEF9FEF08950E94CB1778
:101C200085ED93E00E948D0021E0892B09F420E0EE
:101C3000822F0895EF92FF920F931F93CF93DF931C
:101C4000EC0181E0888F9B8D8C8D981305C0E8890D
:101C5000F989808185FD26C0F62E0B8D10E00F5F7F
:101C60001F4F0F731127E02E8C8DE8120CC00FB69A
:101C700007FCFACFE889F989808185FFF5CFCE018D
:101C80000E943502F1CF8B8DFE01E80FF11DE35A62
:101C9000FF4FF0829FB7F8940B8FEA89FB89808110
:101CA00080620AC09FB7F894EE89FF896083E88953
:101CB000F98980818370806480839FBF81E090E098
:101CC000DF91CF911F910F91FF90EF900895CF93E7
:101CD000DF93EC01888D8823C9F0EA89FB89808134
:101CE00085FD05C0A889B9898C9186FD0FC00FB606
:101CF00007FCF5CF808185FFF2CFA889B9898C9147
:101D000085FFEDCFCE010E943502E7CFDF91CF9165
:101D100008953FB7F89480910F0590911005A09118
:101D20001105B091120526B5A89B05C02F3F19F0EB
:101D30000196A11DB11D3FBFBA2FA92F982F88274B
:101D4000820F911DA11DB11DBC01CD0142E0660FA6
:101D5000771F881F991F4A95D1F708951F920F92F8
:101D60000FB60F9211242F933F938F939F93AF93AE
:101D7000BF938091D1039091D203A091D303B091EE
:101D8000D40330910E0523E0230F2D3720F4019664
:101D9000A11DB11D05C026E8230F0296A11DB11D8E
:101DA00020930E058093D1039093D203A093D30385
:101DB000B093D40380910F0590911005A091110567
:101DC000B09112050196A11DB11D80930F0590934E
:101DD0001005A0931105B0931205BF91AF919F918B
:101DE0008F913F912F910F900FBE0F901F901895DC
:101DF0000F931F93CF93DF93EC0188819981009714
:101E000029F02A813B812617370788F48B016F5F01
:101E10007F4F0E940517009761F0998388831B8389
:101E20000A832C813D81232B11F4FC01108281E077
:101E300001C080E0DF91CF911F910F910895EF9243
:101E4000FF920F931F93CF93DF9300D0CDB7DEB7F0
:101E50008C0169831A82FC01E480F580FFEFEF1AA0
:101E6000FF0AB7010E94F80E882381F0F801208153
:101E7000318184819581BE016F5F7F4F820F931FF7
:101E80000E94D917F801F582E48281E00F900F904B
:101E9000DF91CF911F910F91FF90EF900895EF92F6
:101EA000FF920F931F93CF93DF93EC017B018A0185
:101EB000BA010E94F80E2881398181110DC02115C7
:101EC000310519F0C9010E947C16198218821D8201
:101ED0001C821B821A8206C01D830C83B701C901B4
:101EE0000E94D917CE01DF91CF911F910F91FF90E2
:101EF000EF900895FC01808191810C947C161F92D3
:101F00000F920FB60F9211242F933F934F935F932D
:101F10006F937F938F939F93AF93BF93EF93FF93B1
:101F200085ED93E00E943502FF91EF91BF91AF9153
:101F30009F918F917F916F915F914F913F912F91E1
:101F40000F900FBE0F901F9018951F920F920FB613
:101F50000F9211242F938F939F93EF93FF93E09110
:101F6000E503F091E6038081E091EB03F091EC034F
:101F700082FD12C090818091EE038F5F8F7320915C
:101F8000EF03821751F0E091EE03F0E0EB52FC4FCB
:101F9000958F8093EE0301C08081FF91EF919F9117
:101FA0008F912F910F900FBE0F901F9018958EE775
:101FB00094E00E947A0F84E894E00E947A0F8AE805
:101FC00094E00E947A0F80E994E00E947A0F86E9FB
:101FD00094E00E947A0F84E391E090939D048093B3
:101FE0009C048091FF04909100058C59944071F4F9
:101FF000E091AF04F091B00490818091B10480959C
:1020000089238083109200051092FF048BEB94E0EB
:102010000E94360986ED94E00C943609CF92DF9247
:10202000EF92FF921092D8031092D70398EEC92E28
:1020300093E0D92EE12CF12CC092D903D092DA038F
:10204000E092DB03F092DC0380E191E09093D60311
:102050008093D50385EC90E09093E2038093E103B5
:1020600084EC90E09093E4038093E30380EC90E0B1
:102070009093E6038093E50381EC90E09093E8036E
:102080008093E70382EC90E09093EA038093E90366
:1020900086EC90E09093EC038093EB031092EE03B8
:1020A0001092EF031092F0031092F1031092750456
:1020B00010927404C0927604D0927704E09278046F
:1020C000F092790482E291E0909373048093720419
:1020D00086ED94E00E94E6088BEB94E00E94E6080F
:1020E00010929F0410929E04C092A004D092A1046A
:1020F000E092A204F092A30484E391E090939D0403
:1021000080939C041092B3041092B2041092B50410
:102110001092B4041092B7041092B6041092B9044D
:102120001092B8046091BA046E7F6D7F6093BA0418
:102130006695617081E0682783E00E946D0C61E024
:1021400083E00E949C0CE1EBF0E0E491E093AC04AE
:10215000EDE9F0E0E491F0E0EE0FFF1FE057FF4FF4
:10216000859194919093AE048093AD0460E082E0F9
:102170000E949C0C8091BA0481FD04C061E082E061
:102180000E946D0C82E08093A804E0EBF0E0E49103
:10219000E093A904ECE9F0E0E491F0E0EE0FFF1F1A
:1021A000EA57FF4F859194919093AB048093AA04D2
:1021B00086E994E00E947C0980E994E00E947C0911
:1021C0008AE894E00E947C0984E894E00E947C09FB
:1021D0008EE794E0FF90EF90DF90CF900C947C0915
:1021E000789484B5826084BD84B5816084BD85B5F2
:1021F000826085BD85B5816085BD80916E008160FE
:1022000080936E00109281008091810082608093A3
:1022100081008091810081608093810080918000A5
:102220008160809380008091B10084608093B100D0
:102230008091B00081608093B00080917A008460CA
:1022400080937A0080917A00826080937A008091F6
:102250007A00816080937A0080917A008068809310
:102260007A001092C10061E08AE00E949C0C61E05B
:102270008BE00E949C0C61E088E00E949C0C61E075
:1022800089E00E949C0C61E08CE00E949C0C61E063
:102290008DE00E949C0C60E087E00E949C0C60E056
:1022A00084E00E949C0C61E085E00E949C0C61E04F
:1022B00085E00E946D0CE091E503F091E60382E079
:1022C0008083E091E103F091E2031082E091E30367
:1022D000F091E40380E180831092ED03E091E90343
:1022E000F091EA0386E08083E091E703F091E80350
:1022F000808180618083E091E703F091E803808131
:1023000088608083E091E703F091E8038081806832
:102310008083E091E703F091E80380818F7D8083E3
:102320001092B7041092B6041092B5041092B4043F
:102330001092B3041092B2048DE991E09093B90425
:102340008093B8049091A804963108F058C02DEB02
:1023500030E03093B3042093B2042BE931E03093A2
:10236000B5042093B4042CE231E03093B7042093F9
:10237000B60440916800983058F031E09E3008F47F
:1023800030E021E0822F01C0880F3A95EAF701C0C2
:1023900084E0842B80936800983038F09E3040F0C1
:1023A000963148F020E030E008C02DE630E005C06E
:1023B0002BE630E002C02CE630E03093B0042093EE
:1023C000AF04983030F481E001C0880F9A95EAF7A5
:1023D0000EC0292F30E09E3018F42850310902C079
:1023E0002E50310981E001C0880F2A95EAF78093C9
:1023F000B1048091B8049091B9040197F1F78091EC
:10240000B6049091B704892B49F1E091FF04F09153
:10241000000584E0EC39F80709F1309739F0A38919
:10242000B4899C918589809589238C938091BA0485
:102430008E7F8093BA041092FE041092FD048CE902
:1024400094E0909300058093FF04E091AF04F09135
:10245000B00490818091B104892B808310920B0588
:1024600010920A05109209051092080510920705AE
:1024700011E0109306051092050561E082E10E94CB
:102480006D0C61E083E10E946D0C8091B9008E7F3C
:102490008093B9008091B9008D7F8093B90088E462
:1024A0008093B80085E48093BC008EED90E090931B
:1024B0000405809303058FED90E0909302058093CF
:1024C000010582E38093BA0084E097E090930D05C4
:1024D00080930C0588EE93E0A0E0B0E08093E204E6
:1024E0009093E304A093E404B093E504CFEFDFEF0F
:1024F000D093EB04C093EA04D093ED04C093EC04B2
:102500001093EE0483E997E09093F0048093EF0436
:1025100086ED94E00E94950B85E090E0A0E0B0E0AD
:102520008093C7049093C804A093C904B093CA04CD
:10253000D093D004C093CF04D093D204C093D104DD
:102540001093D3048AE794E09093D5048093D40445
:102550008BEB94E00E94950B0E94710B892BF1F09C
:1025600083EB92E00E94630B84EC92E00E94630B89
:1025700065E28FE30E94FF0389E592E00E94630B0E
:102580006EE58FE30E94FF038DE792E00E94630BEC
:1025900060ED77E080E090E00E94370D8BEB94E0F7
:1025A0000E94890986ED94E00E9489090E949900A1
:1025B000F5CF0E941B1308F481E00895E89409C048
:1025C00097FB3EF490958095709561957F4F8F4F66
:1025D0009F4F9923A9F0F92F96E9BB279395F6957C
:1025E000879577956795B795F111F8CFFAF4BB0FFA
:1025F00011F460FF1BC06F5F7F4F8F4F9F4F16C05E
:10260000882311F096E911C0772321F09EE8872FE7
:10261000762F05C0662371F096E8862F70E060E0A3
:102620002AF09A95660F771F881FDAF7880F96951C
:10263000879597F90895990F0008550FAA0BE0E8C0
:10264000FEEF16161706E807F907C0F01216130674
:10265000E407F50798F0621B730B840B950B39F4B4
:102660000A2661F0232B242B252B21F408950A261A
:1026700009F4A140A6958FEF811D811D08950E9448
:1026800052130C94C3130E94B51338F00E94BC136C
:1026900020F0952311F00C94AC130C94B213112478
:1026A0000C94F7130E94D41370F3959FC1F3950F08
:1026B00050E0551F629FF001729FBB27F00DB11DC6
:1026C000639FAA27F00DB11DAA1F649F6627B00D56
:1026D000A11D661F829F2227B00DA11D621F739F3F
:1026E000B00DA11D621F839FA00D611D221F749F4D
:1026F0003327A00D611D231F849F600D211D822F94
:10270000762F6A2F11249F5750409AF0F1F08823BA
:102710004AF0EE0FFF1FBB1F661F771F881F9150E7
:102720005040A9F79E3F510580F00C94AC130C94D7
:10273000F7135F3FE4F3983ED4F38695779567955A
:10274000B795F795E7959F5FC1F7FE2B880F911D11
:102750009695879597F9089597F99F6780E870E0B7
:1027600060E008959FEF80EC089500240A94161607
:10277000170618060906089500240A94121613066F
:10278000140605060895092E0394000C11F48823FD
:1027900052F0BB0F40F4BF2B11F460FF04C06F5F19
:1027A0007F4F8F4F9F4F089557FD9058440F551FEF
:1027B00059F05F3F71F04795880F97FB991F61F0C3
:1027C0009F3F79F087950895121613061406551F3A
:1027D000F2CF4695F1DF08C0161617061806991FA6
:1027E000F1CF86957105610508940895E894BB279B
:1027F00066277727CB0197F90895052E97FB1EF4DE
:1028000000940E94141457FD07D00E94661407FC20
:1028100003D04EF40C9414145095409530952195A6
:102820003F4F4F4F5F4F08959095809570956195FC
:102830007F4F8F4F9F4F08950E948814A59F900D42
:10284000B49F900DA49F800D911D11240895B7FF92
:102850000C941C140E941C14821B930B08952F923D
:102860003F924F925F926F927F928F929F92AF9220
:10287000BF92CF92DF92EF92FF920F931F93CF936D
:10288000DF93CDB7DEB7CA1BDB0B0FB6F894DEBF04
:102890000FBECDBF09942A88398848885F846E842A
:1028A0007D848C849B84AA84B984C884DF80EE8074
:1028B000FD800C811B81AA81B981CE0FD11D0FB67D
:1028C000F894DEBF0FBECDBFED010895A1E21A2E30
:1028D000AA1BBB1BFD010DC0AA1FBB1FEE1FFF1FC4
:1028E000A217B307E407F50720F0A21BB30BE40B14
:1028F000F50B661F771F881F991F1A9469F760955B
:102900007095809590959B01AC01BD01CF01089514
:10291000A29FB001B39FC001A39F700D811D112420
:10292000911DB29F700D811D1124911D0895505865
:10293000BB27AA270E94AF140C94C3130E94B5139F
:1029400038F00E94BC1320F039F49F3F19F426F4AC
:102950000C94B2130EF4E095E7FB0C94AC13E92F42
:102960000E94D41358F3BA176207730784079507B8
:1029700020F079F4A6F50C94F6130EF4E0950B2EE6
:10298000BA2FA02D0B01B90190010C01CA01A001C1
:102990001124FF27591B99F0593F50F4503E68F11C
:1029A0001A16F040A22F232F342F4427585FF3CF5D
:1029B000469537952795A795F0405395C9F77EF42E
:1029C0001F16BA0B620B730B840BBAF09150A1F077
:1029D000FF0FBB1F661F771F881FC2F70EC0BA0FFD
:1029E000621F731F841F48F4879577956795B79585
:1029F000F7959E3F08F0B0CF9395880F08F0992780
:102A0000EE0F9795879508950E9418150C94C3139F
:102A10000E94BC1358F00E94B51340F029F45F3FA8
:102A200029F00C94AC1351110C94F7130C94B213BD
:102A30000E94D41368F39923B1F3552391F3951BA6
:102A4000550BBB27AA2762177307840738F09F5FCF
:102A50005F4F220F331F441FAA1FA9F335D00E2E3C
:102A60003AF0E0E832D091505040E695001CCAF7A9
:102A70002BD0FE2F29D0660F771F881FBB1F26176C
:102A800037074807AB07B0E809F0BB0B802DBF0143
:102A9000FF2793585F4F3AF09E3F510578F00C9412
:102AA000AC130C94F7135F3FE4F3983ED4F3869590
:102AB00077956795B795F7959F5FC9F7880F911D33
:102AC0009695879597F90895E1E0660F771F881F1F
:102AD000BB1F621773078407BA0720F0621B730BD2
:102AE000840BBA0BEE1F88F7E09508950E947D15C0
:102AF0006894B1110C94F71308950E94DC1388F0C8
:102B00009F5798F0B92F9927B751B0F0E1F0660FB1
:102B1000771F881F991F1AF0BA95C9F714C0B130F2
:102B200091F00E94F613B1E008950C94F613672F0C
:102B3000782F8827B85F39F0B93FCCF38695779521
:102B40006795B395D9F73EF490958095709561950A
:102B50007F4F8F4F9F4F08950E941B1308F48FEFF4
:102B600008950E941B13880B990B089597FB072E5D
:102B700016F4009407D077FD09D00E94CA1507FC0F
:102B800005D03EF4909581959F4F0895709561957D
:102B90007F4F0895AA1BBB1B51E107C0AA1FBB1F93
:102BA000A617B70710F0A61BB70B881F991F5A95D9
:102BB000A9F780959095BC01CD010895EE0FFF1FF8
:102BC0000590F491E02D09940F931F93CF93DF9319
:102BD0008230910510F482E090E0E0911505F091CB
:102BE000160520E030E0A0E0B0E0309719F1408118
:102BF00051810281138148175907C8F0841795073E
:102C000069F4109731F012960C93129713961C9357
:102C100027C0009315051093160522C02115310514
:102C200019F04217530718F49A01BD01EF01DF01B3
:102C3000F801DBCF21153105F9F0281B390B2430C1
:102C4000310580F48A819B816115710521F0FB01BA
:102C50009383828304C09093160580931505FE012B
:102C6000329644C0FE01E20FF31F819391932250EC
:102C70003109398328833AC0209113053091140516
:102C8000232B41F42091020130910301309314056C
:102C90002093130520910001309101012115310588
:102CA00041F42DB73EB74091040150910501241B1A
:102CB000350BE0911305F0911405E217F307A0F42A
:102CC0002E1B3F0B2817390778F0AC014E5F5F4F82
:102CD0002417350748F04E0F5F1F5093140540939B
:102CE00013058193919302C0E0E0F0E0CF01DF9102
:102CF000CF911F910F910895CF93DF93009709F41F
:102D000081C0FC01329713821282A0911505B09107
:102D10001605109781F420813181820F931F209135
:102D20001305309114052817390751F5F093140550
:102D3000E093130567C0ED0120E030E0CE17DF0718
:102D400040F44A815B819E0141155105F1F0EA0191
:102D5000F5CFD383C28340815181840F951FC8175B
:102D6000D90759F488819981840F951F0296918320
:102D700080838A819B81938382832115310529F485
:102D8000F0931605E09315053DC0E901FB83EA8346
:102D900049915991C40FD51FEC17FD0761F480814B
:102DA0009181840F951F0296E9019983888382811E
:102DB00093819B838A83E0E0F0E012968D919C9151
:102DC0001397009719F0FD01DC01F7CF8D919C91CD
:102DD00011979D012E5F3F4F820F931F2091130586
:102DE000309114052817390769F4309729F41092A7
:102DF00016051092150502C013821282B0931405B5
:102E0000A0931305DF91CF910895A0E0B0E0EBE02F
:102E1000F7E10C943314EC01009721F4CB010E94EC
:102E2000E415B4C0FC01E60FF71F9C0122503109E4
:102E3000E217F30708F4A8C0D9010D911C9111976E
:102E400006171707B0F00530110508F49BC0C8013C
:102E500004978617970708F495C002501109061BBE
:102E6000170B019311936D937C93CF010E947C16F5
:102E700089C05B01A01AB10A4C01800E911EA0917D
:102E80001505B0911605612C712CE12CF12C1097D1
:102E900009F446C08D919C911197A815B905B1F51B
:102EA0006C0142E0C40ED11CCA14DB0478F14C0161
:102EB0008A189B08640142E0C40ED11C1296BC9093
:102EC00012971396AC91B5E0CB16D10440F0B282C4
:102ED000A38391828082D9016D937C9309C00E5F98
:102EE0001F4F800F911FF90191838083EB2DFA2FE3
:102EF000E114F10431F0D7011396FC93EE9312978D
:102F000041C0F0931605E09315053CC0681679069C
:102F100008F43C017D0112960D90BC91A02DB7CF15
:102F2000809113059091140588169906E1F46616B0
:102F30007706C8F48091000190910101009741F457
:102F40008DB79EB74091040150910501841B950BEC
:102F5000E817F907C8F4F0931405E0931305F90195
:102F6000718360830FC0CB010E94E4157C01009740
:102F700059F0A801BE010E94D017CE010E947C1614
:102F8000C70104C0CE0102C080E090E0CDB7DEB73B
:102F9000EEE00C944F1481E090E0F8940C94E0176C
:102FA000FB01DC0102C001900D9241505040D8F766
:102FB0000895FB01DC0101900D920020E1F70895D6
:102FC00010E0C2E6D0E004C0FE010E94DE152196AA
:0A2FD000C336D107C9F7F894FFCF0C
:102FDA0000001705800000000000A30000000000A8
:102FEA001A0EB30DDD0D670E8D00EC0D000E0000FC
:102FFA00000062013501320209012D0119010A019D
:10300A0000000000A901B30D32020901F901110201
:10301A00910153656E64696E67204D6F64756C65C6
:10302A00205265717565737420547970653A200071
:10303A000D0A00436F6D6D756E69636174696F6E19
:10304A00206572726F72004A6F79737469636B20BC
:10305A00436F6E74726F6C2072656365697665641E
:10306A003A200058202F20416E676C653A200020D4
:10307A0059202F20596F72416D706C69747564659F
:10308A003A20004C656674204D6F746F72204D694A
:10309A00783A2000205269676874204D6F746F7205
:1030AA00204D69783A20004C656674204D6F746F24
:1030BA007220506F7765723A2000205269676874EF
:1030CA00204D6F746F7220506F7765723A200052EC
:1030DA006573706F6E652072656365766965643ABB
:1030EA0020004E616D652072656365766965643A94
:1030FA00200043726561746F722072656365766938
:10310A0065643A200053746174757320726563654F
:10311A00766965643A20004E6F206E616D65207293
:10312A006563657669656421004E616D6520726527
:10313A0071756573746564004E6F2063726561749E
:10314A006F722072656365766965642100437265F2
:10315A0061746F7220726571756573746564006E4F
:10316A00616E00696E66006F76660053656E64650F
:10317A006420426C7565746F6F7468204461746171
:10318A003A20004D6F64756C652044657461637400
:10319A006564200052657175657374696E67204DA8
:0C31AA006F64756C6520496E666F000054
:107E0000112484B714BE81FFF0D085E080938100F7
:107E100082E08093C00088E18093C10086E0809377
:107E2000C20080E18093C4008EE0C9D0259A86E02C
:107E300020E33CEF91E0309385002093840096BBD3
:107E4000B09BFECF1D9AA8958150A9F7CC24DD24C4
:107E500088248394B5E0AB2EA1E19A2EF3E0BF2EE7
:107E6000A2D0813461F49FD0082FAFD0023811F036
:107E7000013811F484E001C083E08DD089C08234E0
:107E800011F484E103C0853419F485E0A6D080C0E4
:107E9000853579F488D0E82EFF2485D0082F10E0AE
:107EA000102F00270E291F29000F111F8ED06801E7
:107EB0006FC0863521F484E090D080E0DECF843638
:107EC00009F040C070D06FD0082F6DD080E0C81688
:107ED00080E7D80618F4F601B7BEE895C0E0D1E017
:107EE00062D089930C17E1F7F0E0CF16F0E7DF06D8
:107EF00018F0F601B7BEE89568D007B600FCFDCFD4
:107F0000A601A0E0B1E02C9130E011968C91119780
:107F100090E0982F8827822B932B1296FA010C0160
:107F200087BEE89511244E5F5F4FF1E0A038BF0790
:107F300051F7F601A7BEE89507B600FCFDCF97BE46
:107F4000E89526C08437B1F42ED02DD0F82E2BD052
:107F50003CD0F601EF2C8F010F5F1F4F84911BD097
:107F6000EA94F801C1F70894C11CD11CFA94CF0C13
:107F7000D11C0EC0853739F428D08EE10CD085E9AC
:107F80000AD08FE07ACF813511F488E018D01DD067
:107F900080E101D065CF982F8091C00085FFFCCF94
:107FA0009093C60008958091C00087FFFCCF809118
:107FB000C00084FD01C0A8958091C6000895E0E648
:107FC000F0E098E1908380830895EDDF803219F02E
:107FD00088E0F5DFFFCF84E1DECF1F93182FE3DFCA
:107FE0001150E9F7F2DF1F91089580E0E8DFEE27F6
:047FF000FF270994CA
:027FFE00040479
:0400000300007E007B
:00000001FF
